{
  "contractName": "Consumer",
  "abi": [
    {
      "inputs": [],
      "payable": false,
      "stateMutability": "nonpayable",
      "type": "constructor"
    },
    {
      "anonymous": false,
      "inputs": [
        {
          "indexed": false,
          "name": "consumer",
          "type": "address"
        }
      ],
      "name": "ConsumerAdded",
      "type": "event"
    },
    {
      "constant": true,
      "inputs": [
        {
          "name": "consumerAddress",
          "type": "address"
        }
      ],
      "name": "isConsumer",
      "outputs": [
        {
          "name": "",
          "type": "bool"
        }
      ],
      "payable": false,
      "stateMutability": "view",
      "type": "function"
    },
    {
      "constant": false,
      "inputs": [
        {
          "name": "consumerAddress",
          "type": "address"
        }
      ],
      "name": "addConsumer",
      "outputs": [],
      "payable": false,
      "stateMutability": "nonpayable",
      "type": "function"
    }
  ],
  "bytecode": "0x608060405234801561001057600080fd5b506100293361002e640100000000026401000000009004565b610208565b61004f8160006100b5640100000000026102c9179091906401000000009004565b7f28b26e7a3d20aedbc5f8f2ebf7da671c0491723a2b78f47a097b0e46dee0714281604051808273ffffffffffffffffffffffffffffffffffffffff1673ffffffffffffffffffffffffffffffffffffffff16815260200191505060405180910390a150565b600073ffffffffffffffffffffffffffffffffffffffff168173ffffffffffffffffffffffffffffffffffffffff16141515156100f157600080fd5b61010a8282610174640100000000026401000000009004565b15151561011657600080fd5b60018260000160008373ffffffffffffffffffffffffffffffffffffffff1673ffffffffffffffffffffffffffffffffffffffff16815260200190815260200160002060006101000a81548160ff0219169083151502179055505050565b60008073ffffffffffffffffffffffffffffffffffffffff168273ffffffffffffffffffffffffffffffffffffffff16141515156101b157600080fd5b8260000160008373ffffffffffffffffffffffffffffffffffffffff1673ffffffffffffffffffffffffffffffffffffffff16815260200190815260200160002060009054906101000a900460ff16905092915050565b6103a5806102176000396000f30060806040526004361061004c576000357c0100000000000000000000000000000000000000000000000000000000900463ffffffff168063112940f914610051578063834ff73914610094575b600080fd5b34801561005d57600080fd5b50610092600480360381019080803573ffffffffffffffffffffffffffffffffffffffff1690602001909291905050506100ef565b005b3480156100a057600080fd5b506100d5600480360381019080803573ffffffffffffffffffffffffffffffffffffffff16906020019092919050505061019e565b604051808215151515815260200191505060405180910390f35b6100f83361019e565b1515610192576040517f08c379a00000000000000000000000000000000000000000000000000000000081526004018080602001828103825260238152602001807f546869732063616e206f6e6c7920626520646f6e65206279206120636f6e737581526020017f6d6572000000000000000000000000000000000000000000000000000000000081525060400191505060405180910390fd5b61019b816101bb565b50565b60006101b482600061023590919063ffffffff16565b9050919050565b6101cf8160006102c990919063ffffffff16565b7f28b26e7a3d20aedbc5f8f2ebf7da671c0491723a2b78f47a097b0e46dee0714281604051808273ffffffffffffffffffffffffffffffffffffffff1673ffffffffffffffffffffffffffffffffffffffff16815260200191505060405180910390a150565b60008073ffffffffffffffffffffffffffffffffffffffff168273ffffffffffffffffffffffffffffffffffffffff161415151561027257600080fd5b8260000160008373ffffffffffffffffffffffffffffffffffffffff1673ffffffffffffffffffffffffffffffffffffffff16815260200190815260200160002060009054906101000a900460ff16905092915050565b600073ffffffffffffffffffffffffffffffffffffffff168173ffffffffffffffffffffffffffffffffffffffff161415151561030557600080fd5b61030f8282610235565b15151561031b57600080fd5b60018260000160008373ffffffffffffffffffffffffffffffffffffffff1673ffffffffffffffffffffffffffffffffffffffff16815260200190815260200160002060006101000a81548160ff02191690831515021790555050505600a165627a7a72305820cd758aa141069c956063dc2f35ba614aad67895f0df9e75e195e04c527f596300029",
  "source": "pragma solidity >=0.4.24;\n\n\nimport \"../../libraries/UserRoles.sol\";\n\ncontract Consumer {\n    using UserRoles for UserRoles.Role;\n\n    UserRoles.Role private consumers;\n    \n    event ConsumerAdded(address consumer);\n    \n    modifier onlyConsumer() {\n        require(isConsumer(msg.sender), \"This can only be done by a consumer\");\n        _;\n    }\n\n    function _addConsumer(address consumer) internal {\n        consumers.addUserToRole(consumer);\n        emit ConsumerAdded(consumer);\n    }\n\n    constructor() public {\n        _addConsumer(msg.sender);\n    }\n    \n    function isConsumer(address consumerAddress) public view returns(bool){\n        return consumers.has(consumerAddress);\n    }\n    \n    function addConsumer(address consumerAddress) onlyConsumer public {\n        _addConsumer(consumerAddress);\n    }\n}\n",
  "sourcePath": "/Users/cost/Documents/Courses/blockchain-nanodegree/projects/coffee_supply_chain/contracts/access_control/Consumer.sol",
  "compiler": {
    "name": "solc",
    "version": "0.4.26+commit.4563c3fc.Emscripten.clang"
  },
  "schemaVersion": "3.0.2",
  "updatedAt": "2020-03-27T17:07:27.960Z",
  "devdoc": {
    "methods": {}
  },
  "userdoc": {
    "methods": {}
  }
}