{
  "contractName": "Distributor",
  "abi": [
    {
      "inputs": [],
      "payable": false,
      "stateMutability": "nonpayable",
      "type": "constructor"
    },
    {
      "anonymous": false,
      "inputs": [
        {
          "indexed": false,
          "name": "distributor",
          "type": "address"
        }
      ],
      "name": "DistributorAdded",
      "type": "event"
    },
    {
      "constant": true,
      "inputs": [
        {
          "name": "distributorAddress",
          "type": "address"
        }
      ],
      "name": "isDistributor",
      "outputs": [
        {
          "name": "",
          "type": "bool"
        }
      ],
      "payable": false,
      "stateMutability": "view",
      "type": "function"
    },
    {
      "constant": false,
      "inputs": [
        {
          "name": "distributorAddress",
          "type": "address"
        }
      ],
      "name": "addDistributor",
      "outputs": [],
      "payable": false,
      "stateMutability": "nonpayable",
      "type": "function"
    }
  ],
  "bytecode": "0x608060405234801561001057600080fd5b506100293361002e640100000000026401000000009004565b610208565b61004f8160006100b5640100000000026102c9179091906401000000009004565b7fddbf200aa634dc3fb81cfd68583dd1040d1c751d335e1d86b631bde3e977fea881604051808273ffffffffffffffffffffffffffffffffffffffff1673ffffffffffffffffffffffffffffffffffffffff16815260200191505060405180910390a150565b600073ffffffffffffffffffffffffffffffffffffffff168173ffffffffffffffffffffffffffffffffffffffff16141515156100f157600080fd5b61010a8282610174640100000000026401000000009004565b15151561011657600080fd5b60018260000160008373ffffffffffffffffffffffffffffffffffffffff1673ffffffffffffffffffffffffffffffffffffffff16815260200190815260200160002060006101000a81548160ff0219169083151502179055505050565b60008073ffffffffffffffffffffffffffffffffffffffff168273ffffffffffffffffffffffffffffffffffffffff16141515156101b157600080fd5b8260000160008373ffffffffffffffffffffffffffffffffffffffff1673ffffffffffffffffffffffffffffffffffffffff16815260200190815260200160002060009054906101000a900460ff16905092915050565b6103a5806102176000396000f30060806040526004361061004c576000357c0100000000000000000000000000000000000000000000000000000000900463ffffffff1680637250e224146100515780638f0c86fa14610094575b600080fd5b34801561005d57600080fd5b50610092600480360381019080803573ffffffffffffffffffffffffffffffffffffffff1690602001909291905050506100ef565b005b3480156100a057600080fd5b506100d5600480360381019080803573ffffffffffffffffffffffffffffffffffffffff16906020019092919050505061019e565b604051808215151515815260200191505060405180910390f35b6100f83361019e565b1515610192576040517f08c379a00000000000000000000000000000000000000000000000000000000081526004018080602001828103825260268152602001807f546869732063616e206f6e6c7920626520646f6e65206279206120646973747281526020017f696275746f72000000000000000000000000000000000000000000000000000081525060400191505060405180910390fd5b61019b816101bb565b50565b60006101b482600061023590919063ffffffff16565b9050919050565b6101cf8160006102c990919063ffffffff16565b7fddbf200aa634dc3fb81cfd68583dd1040d1c751d335e1d86b631bde3e977fea881604051808273ffffffffffffffffffffffffffffffffffffffff1673ffffffffffffffffffffffffffffffffffffffff16815260200191505060405180910390a150565b60008073ffffffffffffffffffffffffffffffffffffffff168273ffffffffffffffffffffffffffffffffffffffff161415151561027257600080fd5b8260000160008373ffffffffffffffffffffffffffffffffffffffff1673ffffffffffffffffffffffffffffffffffffffff16815260200190815260200160002060009054906101000a900460ff16905092915050565b600073ffffffffffffffffffffffffffffffffffffffff168173ffffffffffffffffffffffffffffffffffffffff161415151561030557600080fd5b61030f8282610235565b15151561031b57600080fd5b60018260000160008373ffffffffffffffffffffffffffffffffffffffff1673ffffffffffffffffffffffffffffffffffffffff16815260200190815260200160002060006101000a81548160ff02191690831515021790555050505600a165627a7a7230582003f108661835780b741cde447d0b4efd3c6a7a51aa5716c982347ba4ba15880b0029",
  "source": "pragma solidity >=0.4.24;\n\nimport \"../../libraries/UserRoles.sol\";\n\ncontract Distributor {\n    using UserRoles for UserRoles.Role;\n\n    UserRoles.Role private distributors;\n    \n    event DistributorAdded(address distributor);\n    \n    modifier onlyDistributor() {\n        require(isDistributor(msg.sender), \"This can only be done by a distributor\");\n        _;\n    }\n\n    function _addDistributor(address distributor) internal {\n        distributors.addUserToRole(distributor);\n        emit DistributorAdded(distributor);\n    }\n\n    constructor() public {\n        _addDistributor(msg.sender);\n    }\n    \n    function isDistributor(address distributorAddress) public view returns(bool){\n        return distributors.has(distributorAddress);\n    }\n    \n    function addDistributor(address distributorAddress) onlyDistributor public {\n        _addDistributor(distributorAddress);\n    }\n\n\n}\n",
  "sourcePath": "/Users/cost/Documents/Courses/blockchain-nanodegree/projects/coffee_supply_chain/contracts/access_control/Distributor.sol",
  "compiler": {
    "name": "solc",
    "version": "0.4.26+commit.4563c3fc.Emscripten.clang"
  },
  "schemaVersion": "3.0.2",
  "updatedAt": "2020-03-27T17:07:27.962Z",
  "devdoc": {
    "methods": {}
  },
  "userdoc": {
    "methods": {}
  }
}