{
  "contractName": "Retailer",
  "abi": [
    {
      "inputs": [],
      "payable": false,
      "stateMutability": "nonpayable",
      "type": "constructor"
    },
    {
      "anonymous": false,
      "inputs": [
        {
          "indexed": false,
          "name": "retailer",
          "type": "address"
        }
      ],
      "name": "RetailerAdded",
      "type": "event"
    },
    {
      "constant": true,
      "inputs": [
        {
          "name": "retailerAddress",
          "type": "address"
        }
      ],
      "name": "isRetailer",
      "outputs": [
        {
          "name": "",
          "type": "bool"
        }
      ],
      "payable": false,
      "stateMutability": "view",
      "type": "function"
    },
    {
      "constant": false,
      "inputs": [
        {
          "name": "retailerAddress",
          "type": "address"
        }
      ],
      "name": "addRetailer",
      "outputs": [],
      "payable": false,
      "stateMutability": "nonpayable",
      "type": "function"
    }
  ],
  "bytecode": "0x608060405234801561001057600080fd5b506100293361002e640100000000026401000000009004565b610208565b61004f8160006100b5640100000000026102c9179091906401000000009004565b7f71ae26cad02663e3d92efd6ec56031a80d74a20c0ab4183faa8bf262261c9baa81604051808273ffffffffffffffffffffffffffffffffffffffff1673ffffffffffffffffffffffffffffffffffffffff16815260200191505060405180910390a150565b600073ffffffffffffffffffffffffffffffffffffffff168173ffffffffffffffffffffffffffffffffffffffff16141515156100f157600080fd5b61010a8282610174640100000000026401000000009004565b15151561011657600080fd5b60018260000160008373ffffffffffffffffffffffffffffffffffffffff1673ffffffffffffffffffffffffffffffffffffffff16815260200190815260200160002060006101000a81548160ff0219169083151502179055505050565b60008073ffffffffffffffffffffffffffffffffffffffff168273ffffffffffffffffffffffffffffffffffffffff16141515156101b157600080fd5b8260000160008373ffffffffffffffffffffffffffffffffffffffff1673ffffffffffffffffffffffffffffffffffffffff16815260200190815260200160002060009054906101000a900460ff16905092915050565b6103a5806102176000396000f30060806040526004361061004c576000357c0100000000000000000000000000000000000000000000000000000000900463ffffffff1680635da09b88146100515780638ec4f505146100ac575b600080fd5b34801561005d57600080fd5b50610092600480360381019080803573ffffffffffffffffffffffffffffffffffffffff1690602001909291905050506100ef565b604051808215151515815260200191505060405180910390f35b3480156100b857600080fd5b506100ed600480360381019080803573ffffffffffffffffffffffffffffffffffffffff16906020019092919050505061010c565b005b60006101058260006101bb90919063ffffffff16565b9050919050565b610115336100ef565b15156101af576040517f08c379a00000000000000000000000000000000000000000000000000000000081526004018080602001828103825260238152602001807f546869732063616e206f6e6c7920626520646f6e65206279206120726574616981526020017f6c6572000000000000000000000000000000000000000000000000000000000081525060400191505060405180910390fd5b6101b88161024f565b50565b60008073ffffffffffffffffffffffffffffffffffffffff168273ffffffffffffffffffffffffffffffffffffffff16141515156101f857600080fd5b8260000160008373ffffffffffffffffffffffffffffffffffffffff1673ffffffffffffffffffffffffffffffffffffffff16815260200190815260200160002060009054906101000a900460ff16905092915050565b6102638160006102c990919063ffffffff16565b7f71ae26cad02663e3d92efd6ec56031a80d74a20c0ab4183faa8bf262261c9baa81604051808273ffffffffffffffffffffffffffffffffffffffff1673ffffffffffffffffffffffffffffffffffffffff16815260200191505060405180910390a150565b600073ffffffffffffffffffffffffffffffffffffffff168173ffffffffffffffffffffffffffffffffffffffff161415151561030557600080fd5b61030f82826101bb565b15151561031b57600080fd5b60018260000160008373ffffffffffffffffffffffffffffffffffffffff1673ffffffffffffffffffffffffffffffffffffffff16815260200190815260200160002060006101000a81548160ff02191690831515021790555050505600a165627a7a72305820eca617334b3cc2dab21c2191357f1a6c77d4754518246cd85a016ded97b3d1a40029",
  "source": "pragma solidity >=0.4.24;\n\nimport \"../../libraries/UserRoles.sol\";\n\ncontract Retailer {\n    using UserRoles for UserRoles.Role;\n\n    UserRoles.Role private retailers;\n    \n    event RetailerAdded(address retailer);\n    \n    modifier onlyRetailer() {\n        require(isRetailer(msg.sender), \"This can only be done by a retailer\");\n        _;\n    }\n\n    function _addRetailer(address retailer) internal {\n        retailers.addUserToRole(retailer);\n        emit RetailerAdded(retailer);\n    }\n\n    constructor() public {\n        _addRetailer(msg.sender);\n    }\n    \n    function isRetailer(address retailerAddress) public view returns(bool){\n        return retailers.has(retailerAddress);\n    }\n    \n    function addRetailer(address retailerAddress) onlyRetailer public {\n        _addRetailer(retailerAddress);\n    }\n\n\n}",
  "sourcePath": "/Users/cost/Documents/Courses/blockchain-nanodegree/projects/coffee_supply_chain/contracts/access_control/Retailer.sol",
  "compiler": {
    "name": "solc",
    "version": "0.4.26+commit.4563c3fc.Emscripten.clang"
  },
  "schemaVersion": "3.0.2",
  "updatedAt": "2020-03-27T17:07:27.963Z",
  "devdoc": {
    "methods": {}
  },
  "userdoc": {
    "methods": {}
  }
}