{
  "contractName": "SupplyChain",
  "abi": [
    {
      "constant": false,
      "inputs": [
        {
          "name": "consumerAddress",
          "type": "address"
        }
      ],
      "name": "addConsumer",
      "outputs": [],
      "payable": false,
      "stateMutability": "nonpayable",
      "type": "function",
      "signature": "0x112940f9"
    },
    {
      "constant": true,
      "inputs": [
        {
          "name": "retailerAddress",
          "type": "address"
        }
      ],
      "name": "isRetailer",
      "outputs": [
        {
          "name": "",
          "type": "bool"
        }
      ],
      "payable": false,
      "stateMutability": "view",
      "type": "function",
      "signature": "0x5da09b88"
    },
    {
      "constant": false,
      "inputs": [],
      "name": "renounceConsumer",
      "outputs": [],
      "payable": false,
      "stateMutability": "nonpayable",
      "type": "function",
      "signature": "0x61e6982d"
    },
    {
      "constant": false,
      "inputs": [],
      "name": "renounceDistributor",
      "outputs": [],
      "payable": false,
      "stateMutability": "nonpayable",
      "type": "function",
      "signature": "0x644241db"
    },
    {
      "constant": false,
      "inputs": [],
      "name": "renounceOwnership",
      "outputs": [],
      "payable": false,
      "stateMutability": "nonpayable",
      "type": "function",
      "signature": "0x715018a6"
    },
    {
      "constant": false,
      "inputs": [
        {
          "name": "distributorAddress",
          "type": "address"
        }
      ],
      "name": "addDistributor",
      "outputs": [],
      "payable": false,
      "stateMutability": "nonpayable",
      "type": "function",
      "signature": "0x7250e224"
    },
    {
      "constant": false,
      "inputs": [
        {
          "name": "farmerAddress",
          "type": "address"
        }
      ],
      "name": "addFarmer",
      "outputs": [],
      "payable": false,
      "stateMutability": "nonpayable",
      "type": "function",
      "signature": "0x80c3f96d"
    },
    {
      "constant": false,
      "inputs": [],
      "name": "renounceFarmer",
      "outputs": [],
      "payable": false,
      "stateMutability": "nonpayable",
      "type": "function",
      "signature": "0x80fc0ce4"
    },
    {
      "constant": true,
      "inputs": [
        {
          "name": "consumerAddress",
          "type": "address"
        }
      ],
      "name": "isConsumer",
      "outputs": [
        {
          "name": "",
          "type": "bool"
        }
      ],
      "payable": false,
      "stateMutability": "view",
      "type": "function",
      "signature": "0x834ff739"
    },
    {
      "constant": true,
      "inputs": [],
      "name": "owner",
      "outputs": [
        {
          "name": "",
          "type": "address"
        }
      ],
      "payable": false,
      "stateMutability": "view",
      "type": "function",
      "signature": "0x8da5cb5b"
    },
    {
      "constant": false,
      "inputs": [
        {
          "name": "retailerAddress",
          "type": "address"
        }
      ],
      "name": "addRetailer",
      "outputs": [],
      "payable": false,
      "stateMutability": "nonpayable",
      "type": "function",
      "signature": "0x8ec4f505"
    },
    {
      "constant": true,
      "inputs": [
        {
          "name": "distributorAddress",
          "type": "address"
        }
      ],
      "name": "isDistributor",
      "outputs": [
        {
          "name": "",
          "type": "bool"
        }
      ],
      "payable": false,
      "stateMutability": "view",
      "type": "function",
      "signature": "0x8f0c86fa"
    },
    {
      "constant": true,
      "inputs": [],
      "name": "isOwner",
      "outputs": [
        {
          "name": "",
          "type": "bool"
        }
      ],
      "payable": false,
      "stateMutability": "view",
      "type": "function",
      "signature": "0x8f32d59b"
    },
    {
      "constant": true,
      "inputs": [
        {
          "name": "farmerAddress",
          "type": "address"
        }
      ],
      "name": "isFarmer",
      "outputs": [
        {
          "name": "",
          "type": "bool"
        }
      ],
      "payable": false,
      "stateMutability": "view",
      "type": "function",
      "signature": "0xb9429069"
    },
    {
      "constant": false,
      "inputs": [],
      "name": "renounceRetailer",
      "outputs": [],
      "payable": false,
      "stateMutability": "nonpayable",
      "type": "function",
      "signature": "0xdb0e6a2f"
    },
    {
      "constant": false,
      "inputs": [
        {
          "name": "newOwner",
          "type": "address"
        }
      ],
      "name": "transferOwnership",
      "outputs": [],
      "payable": false,
      "stateMutability": "nonpayable",
      "type": "function",
      "signature": "0xf2fde38b"
    },
    {
      "inputs": [],
      "payable": true,
      "stateMutability": "payable",
      "type": "constructor",
      "signature": "constructor"
    },
    {
      "anonymous": false,
      "inputs": [
        {
          "indexed": false,
          "name": "upc",
          "type": "uint256"
        }
      ],
      "name": "Harvested",
      "type": "event",
      "signature": "0x8e55ccfc9778ff8eba1646d765cf1982537ce0f9257054a17b48aad745250183"
    },
    {
      "anonymous": false,
      "inputs": [
        {
          "indexed": false,
          "name": "upc",
          "type": "uint256"
        }
      ],
      "name": "Processed",
      "type": "event",
      "signature": "0x5afe3b1bf87069693c075da5c22a98d63d1aef98a30dbbe538d0781a98b77ee5"
    },
    {
      "anonymous": false,
      "inputs": [
        {
          "indexed": false,
          "name": "upc",
          "type": "uint256"
        }
      ],
      "name": "Packed",
      "type": "event",
      "signature": "0x9b3b66e2380b690bae22c73ef1428fb0c91e72fe14a4b6defa13035214187aff"
    },
    {
      "anonymous": false,
      "inputs": [
        {
          "indexed": false,
          "name": "upc",
          "type": "uint256"
        }
      ],
      "name": "Advertised",
      "type": "event",
      "signature": "0x26aeaf6aa11656fd0fe35f8f689c6755044c86f4727f1f77785c515cdab7994c"
    },
    {
      "anonymous": false,
      "inputs": [
        {
          "indexed": false,
          "name": "upc",
          "type": "uint256"
        }
      ],
      "name": "Bought",
      "type": "event",
      "signature": "0x4e08ba899977cf7d4c2964bce71c6b9a7ef76ee5166a4c1249a1e08016e33ef1"
    },
    {
      "anonymous": false,
      "inputs": [
        {
          "indexed": false,
          "name": "upc",
          "type": "uint256"
        }
      ],
      "name": "Shipped",
      "type": "event",
      "signature": "0xf00b9a5725b80c54016f42114f6ed7792d22eecb116011c4afac29c57bef6c95"
    },
    {
      "anonymous": false,
      "inputs": [
        {
          "indexed": false,
          "name": "upc",
          "type": "uint256"
        }
      ],
      "name": "Received",
      "type": "event",
      "signature": "0xa8142743f8f70a4c26f3691cf4ed59718381fb2f18070ec52be1f1022d855557"
    },
    {
      "anonymous": false,
      "inputs": [
        {
          "indexed": false,
          "name": "upc",
          "type": "uint256"
        }
      ],
      "name": "Purchased",
      "type": "event",
      "signature": "0x653d56639fee6b566a5c804764e9689de38645f0b733df89a36a1b7b42173dd8"
    },
    {
      "anonymous": false,
      "inputs": [
        {
          "indexed": false,
          "name": "consumer",
          "type": "address"
        }
      ],
      "name": "ConsumerAdded",
      "type": "event",
      "signature": "0x28b26e7a3d20aedbc5f8f2ebf7da671c0491723a2b78f47a097b0e46dee07142"
    },
    {
      "anonymous": false,
      "inputs": [
        {
          "indexed": false,
          "name": "consumer",
          "type": "address"
        }
      ],
      "name": "ConsumerRemoved",
      "type": "event",
      "signature": "0xe3f5ed5f263f1f01764a96edfc7d025f511ec5f7d180e8816908b78bcf74f098"
    },
    {
      "anonymous": false,
      "inputs": [
        {
          "indexed": false,
          "name": "retailer",
          "type": "address"
        }
      ],
      "name": "RetailerAdded",
      "type": "event",
      "signature": "0x71ae26cad02663e3d92efd6ec56031a80d74a20c0ab4183faa8bf262261c9baa"
    },
    {
      "anonymous": false,
      "inputs": [
        {
          "indexed": false,
          "name": "retailer",
          "type": "address"
        }
      ],
      "name": "RetailerRemoved",
      "type": "event",
      "signature": "0xdb7176e79cffef81cb01767dd0447a0b24bb72ca9778d4b245581086b2a7e6db"
    },
    {
      "anonymous": false,
      "inputs": [
        {
          "indexed": false,
          "name": "distributor",
          "type": "address"
        }
      ],
      "name": "DistributorAdded",
      "type": "event",
      "signature": "0xddbf200aa634dc3fb81cfd68583dd1040d1c751d335e1d86b631bde3e977fea8"
    },
    {
      "anonymous": false,
      "inputs": [
        {
          "indexed": false,
          "name": "distributor",
          "type": "address"
        }
      ],
      "name": "DistributorRemoved",
      "type": "event",
      "signature": "0x126174f6cf49c81cdb4a9214c6b8f037bef55b4ec31e4fc776cea2a1c8a88d59"
    },
    {
      "anonymous": false,
      "inputs": [
        {
          "indexed": false,
          "name": "farmer",
          "type": "address"
        }
      ],
      "name": "FarmerAdded",
      "type": "event",
      "signature": "0x2e0ded4123377a3c2bc9a26f1717655a129e2f20752924d42e730ec89c83dbd0"
    },
    {
      "anonymous": false,
      "inputs": [
        {
          "indexed": false,
          "name": "farmer",
          "type": "address"
        }
      ],
      "name": "FarmerRemoved",
      "type": "event",
      "signature": "0xa5e0f060af304ab17dd418c7927e3da3ae7868189bf387aee09ab179ccc572f2"
    },
    {
      "anonymous": false,
      "inputs": [
        {
          "indexed": true,
          "name": "oldOwner",
          "type": "address"
        },
        {
          "indexed": true,
          "name": "newOwner",
          "type": "address"
        }
      ],
      "name": "TransferOwnership",
      "type": "event",
      "signature": "0x5c486528ec3e3f0ea91181cff8116f02bfa350e03b8b6f12e00765adbb5af85c"
    },
    {
      "constant": false,
      "inputs": [
        {
          "name": "_productUpc",
          "type": "uint256"
        },
        {
          "name": "_farm",
          "type": "string"
        },
        {
          "name": "_organizationInfo",
          "type": "string"
        },
        {
          "name": "_longitude",
          "type": "string"
        },
        {
          "name": "_latitude",
          "type": "string"
        },
        {
          "name": "_notes",
          "type": "string"
        },
        {
          "name": "_farmer",
          "type": "address"
        }
      ],
      "name": "harvestCoffee",
      "outputs": [],
      "payable": false,
      "stateMutability": "nonpayable",
      "type": "function",
      "signature": "0x39d5cc21"
    },
    {
      "constant": false,
      "inputs": [
        {
          "name": "upc",
          "type": "uint256"
        }
      ],
      "name": "processCoffee",
      "outputs": [],
      "payable": false,
      "stateMutability": "nonpayable",
      "type": "function",
      "signature": "0x276268af"
    },
    {
      "constant": false,
      "inputs": [
        {
          "name": "upc",
          "type": "uint256"
        }
      ],
      "name": "packCoffee",
      "outputs": [],
      "payable": false,
      "stateMutability": "nonpayable",
      "type": "function",
      "signature": "0x3a2fc864"
    },
    {
      "constant": false,
      "inputs": [
        {
          "name": "upc",
          "type": "uint256"
        },
        {
          "name": "sellingPrice",
          "type": "uint256"
        }
      ],
      "name": "advertiseCoffee",
      "outputs": [],
      "payable": false,
      "stateMutability": "nonpayable",
      "type": "function",
      "signature": "0xeb0f90ce"
    },
    {
      "constant": false,
      "inputs": [
        {
          "name": "upc",
          "type": "uint256"
        },
        {
          "name": "consumerPriceToSet",
          "type": "uint256"
        }
      ],
      "name": "buyCoffee",
      "outputs": [],
      "payable": true,
      "stateMutability": "payable",
      "type": "function",
      "signature": "0x40366ee4"
    },
    {
      "constant": false,
      "inputs": [
        {
          "name": "upc",
          "type": "uint256"
        }
      ],
      "name": "shipCoffee",
      "outputs": [],
      "payable": false,
      "stateMutability": "nonpayable",
      "type": "function",
      "signature": "0xd0daef64"
    },
    {
      "constant": false,
      "inputs": [
        {
          "name": "upc",
          "type": "uint256"
        }
      ],
      "name": "receiveCoffee",
      "outputs": [],
      "payable": false,
      "stateMutability": "nonpayable",
      "type": "function",
      "signature": "0x85822c7b"
    },
    {
      "constant": false,
      "inputs": [
        {
          "name": "upc",
          "type": "uint256"
        }
      ],
      "name": "purchaseCoffee",
      "outputs": [],
      "payable": true,
      "stateMutability": "payable",
      "type": "function",
      "signature": "0xee3f3c00"
    },
    {
      "constant": true,
      "inputs": [
        {
          "name": "_upc",
          "type": "uint256"
        }
      ],
      "name": "trackCoffeeBufferOne",
      "outputs": [
        {
          "name": "sku",
          "type": "uint256"
        },
        {
          "name": "sellingPrice",
          "type": "uint256"
        },
        {
          "name": "purchasingPrice",
          "type": "uint256"
        },
        {
          "name": "stateIs",
          "type": "string"
        },
        {
          "name": "productUpc",
          "type": "uint256"
        },
        {
          "name": "farm",
          "type": "string"
        },
        {
          "name": "organizationInfo",
          "type": "string"
        }
      ],
      "payable": false,
      "stateMutability": "view",
      "type": "function",
      "signature": "0x6fcd935c"
    },
    {
      "constant": true,
      "inputs": [
        {
          "name": "_upc",
          "type": "uint256"
        }
      ],
      "name": "trackCoffeeBufferTwo",
      "outputs": [
        {
          "name": "sku",
          "type": "uint256"
        },
        {
          "name": "lat",
          "type": "string"
        },
        {
          "name": "long",
          "type": "string"
        },
        {
          "name": "notes",
          "type": "string"
        },
        {
          "name": "farmer",
          "type": "address"
        },
        {
          "name": "buyer",
          "type": "address"
        },
        {
          "name": "retailer",
          "type": "address"
        },
        {
          "name": "consumer",
          "type": "address"
        }
      ],
      "payable": false,
      "stateMutability": "view",
      "type": "function",
      "signature": "0x794c865a"
    }
  ],
  "bytecode": "0x6080604052336000806101000a81548173ffffffffffffffffffffffffffffffffffffffff021916908373ffffffffffffffffffffffffffffffffffffffff1602179055506000809054906101000a900473ffffffffffffffffffffffffffffffffffffffff1673ffffffffffffffffffffffffffffffffffffffff16600073ffffffffffffffffffffffffffffffffffffffff167f5c486528ec3e3f0ea91181cff8116f02bfa350e03b8b6f12e00765adbb5af85c60405160405180910390a3620000da3362000176640100000000026401000000009004565b620000f43362000200640100000000026401000000009004565b6200010e336200028a640100000000026401000000009004565b620001283362000314640100000000026401000000009004565b336000806101000a81548173ffffffffffffffffffffffffffffffffffffffff021916908373ffffffffffffffffffffffffffffffffffffffff1602179055506000600581905550620004f6565b6200019a8160016200039e6401000000000262003c77179091906401000000009004565b7f2e0ded4123377a3c2bc9a26f1717655a129e2f20752924d42e730ec89c83dbd081604051808273ffffffffffffffffffffffffffffffffffffffff1673ffffffffffffffffffffffffffffffffffffffff16815260200191505060405180910390a150565b620002248160026200039e6401000000000262003c77179091906401000000009004565b7fddbf200aa634dc3fb81cfd68583dd1040d1c751d335e1d86b631bde3e977fea881604051808273ffffffffffffffffffffffffffffffffffffffff1673ffffffffffffffffffffffffffffffffffffffff16815260200191505060405180910390a150565b620002ae8160036200039e6401000000000262003c77179091906401000000009004565b7f71ae26cad02663e3d92efd6ec56031a80d74a20c0ab4183faa8bf262261c9baa81604051808273ffffffffffffffffffffffffffffffffffffffff1673ffffffffffffffffffffffffffffffffffffffff16815260200191505060405180910390a150565b620003388160046200039e6401000000000262003c77179091906401000000009004565b7f28b26e7a3d20aedbc5f8f2ebf7da671c0491723a2b78f47a097b0e46dee0714281604051808273ffffffffffffffffffffffffffffffffffffffff1673ffffffffffffffffffffffffffffffffffffffff16815260200191505060405180910390a150565b600073ffffffffffffffffffffffffffffffffffffffff168173ffffffffffffffffffffffffffffffffffffffff1614151515620003db57600080fd5b620003f6828262000461640100000000026401000000009004565b1515156200040357600080fd5b60018260000160008373ffffffffffffffffffffffffffffffffffffffff1673ffffffffffffffffffffffffffffffffffffffff16815260200190815260200160002060006101000a81548160ff0219169083151502179055505050565b60008073ffffffffffffffffffffffffffffffffffffffff168273ffffffffffffffffffffffffffffffffffffffff16141515156200049f57600080fd5b8260000160008373ffffffffffffffffffffffffffffffffffffffff1673ffffffffffffffffffffffffffffffffffffffff16815260200190815260200160002060009054906101000a900460ff16905092915050565b613ec180620005066000396000f300608060405260043610610154576000357c0100000000000000000000000000000000000000000000000000000000900463ffffffff168063112940f914610159578063276268af1461019c57806339d5cc21146101c95780633a2fc8641461037457806340366ee4146103a15780635da09b88146103cb57806361e6982d14610426578063644241db1461043d5780636fcd935c14610454578063715018a6146105ee5780637250e22414610605578063794c865a1461064857806380c3f96d1461089957806380fc0ce4146108dc578063834ff739146108f357806385822c7b1461094e5780638da5cb5b1461097b5780638ec4f505146109d25780638f0c86fa14610a155780638f32d59b14610a70578063b942906914610a9f578063d0daef6414610afa578063db0e6a2f14610b27578063eb0f90ce14610b3e578063ee3f3c0014610b75578063f2fde38b14610b95575b600080fd5b34801561016557600080fd5b5061019a600480360381019080803573ffffffffffffffffffffffffffffffffffffffff169060200190929190505050610bd8565b005b3480156101a857600080fd5b506101c760048036038101908080359060200190929190505050610c87565b005b3480156101d557600080fd5b5061037260048036038101908080359060200190929190803590602001908201803590602001908080601f0160208091040260200160405190810160405280939291908181526020018383808284378201915050505050509192919290803590602001908201803590602001908080601f0160208091040260200160405190810160405280939291908181526020018383808284378201915050505050509192919290803590602001908201803590602001908080601f0160208091040260200160405190810160405280939291908181526020018383808284378201915050505050509192919290803590602001908201803590602001908080601f0160208091040260200160405190810160405280939291908181526020018383808284378201915050505050509192919290803590602001908201803590602001908080601f0160208091040260200160405190810160405280939291908181526020018383808284378201915050505050509192919290803573ffffffffffffffffffffffffffffffffffffffff169060200190929190505050610f50565b005b34801561038057600080fd5b5061039f60048036038101908080359060200190929190505050611349565b005b6103c96004803603810190808035906020019092919080359060200190929190505050611612565b005b3480156103d757600080fd5b5061040c600480360381019080803573ffffffffffffffffffffffffffffffffffffffff169060200190929190505050611ad2565b604051808215151515815260200191505060405180910390f35b34801561043257600080fd5b5061043b611aef565b005b34801561044957600080fd5b50610452611b9d565b005b34801561046057600080fd5b5061047f60048036038101908080359060200190929190505050611c4b565b60405180888152602001878152602001868152602001806020018581526020018060200180602001848103845288818151815260200191508051906020019080838360005b838110156104df5780820151818401526020810190506104c4565b50505050905090810190601f16801561050c5780820380516001836020036101000a031916815260200191505b50848103835286818151815260200191508051906020019080838360005b8381101561054557808201518184015260208101905061052a565b50505050905090810190601f1680156105725780820380516001836020036101000a031916815260200191505b50848103825285818151815260200191508051906020019080838360005b838110156105ab578082015181840152602081019050610590565b50505050905090810190601f1680156105d85780820380516001836020036101000a031916815260200191505b509a505050505050505050505060405180910390f35b3480156105fa57600080fd5b50610603612081565b005b34801561061157600080fd5b50610646600480360381019080803573ffffffffffffffffffffffffffffffffffffffff1690602001909291905050506121e2565b005b34801561065457600080fd5b5061067360048036038101908080359060200190929190505050612291565b604051808981526020018060200180602001806020018873ffffffffffffffffffffffffffffffffffffffff1673ffffffffffffffffffffffffffffffffffffffff1681526020018773ffffffffffffffffffffffffffffffffffffffff1673ffffffffffffffffffffffffffffffffffffffff1681526020018673ffffffffffffffffffffffffffffffffffffffff1673ffffffffffffffffffffffffffffffffffffffff1681526020018573ffffffffffffffffffffffffffffffffffffffff1673ffffffffffffffffffffffffffffffffffffffff16815260200184810384528b818151815260200191508051906020019080838360005b8381101561078957808201518184015260208101905061076e565b50505050905090810190601f1680156107b65780820380516001836020036101000a031916815260200191505b5084810383528a818151815260200191508051906020019080838360005b838110156107ef5780820151818401526020810190506107d4565b50505050905090810190601f16801561081c5780820380516001836020036101000a031916815260200191505b50848103825289818151815260200191508051906020019080838360005b8381101561085557808201518184015260208101905061083a565b50505050905090810190601f1680156108825780820380516001836020036101000a031916815260200191505b509b50505050505050505050505060405180910390f35b3480156108a557600080fd5b506108da600480360381019080803573ffffffffffffffffffffffffffffffffffffffff1690602001909291905050506125d7565b005b3480156108e857600080fd5b506108f1612686565b005b3480156108ff57600080fd5b50610934600480360381019080803573ffffffffffffffffffffffffffffffffffffffff169060200190929190505050612734565b604051808215151515815260200191505060405180910390f35b34801561095a57600080fd5b5061097960048036038101908080359060200190929190505050612751565b005b34801561098757600080fd5b50610990612974565b604051808273ffffffffffffffffffffffffffffffffffffffff1673ffffffffffffffffffffffffffffffffffffffff16815260200191505060405180910390f35b3480156109de57600080fd5b50610a13600480360381019080803573ffffffffffffffffffffffffffffffffffffffff16906020019092919050505061299d565b005b348015610a2157600080fd5b50610a56600480360381019080803573ffffffffffffffffffffffffffffffffffffffff169060200190929190505050612a4c565b604051808215151515815260200191505060405180910390f35b348015610a7c57600080fd5b50610a85612a69565b604051808215151515815260200191505060405180910390f35b348015610aab57600080fd5b50610ae0600480360381019080803573ffffffffffffffffffffffffffffffffffffffff169060200190929190505050612ac0565b604051808215151515815260200191505060405180910390f35b348015610b0657600080fd5b50610b2560048036038101908080359060200190929190505050612add565b005b348015610b3357600080fd5b50610b3c612da5565b005b348015610b4a57600080fd5b50610b736004803603810190808035906020019092919080359060200190929190505050612e53565b005b610b9360048036038101908080359060200190929190505050613138565b005b348015610ba157600080fd5b50610bd6600480360381019080803573ffffffffffffffffffffffffffffffffffffffff1690602001909291905050506135dc565b005b610be133612734565b1515610c7b576040517f08c379a00000000000000000000000000000000000000000000000000000000081526004018080602001828103825260238152602001807f546869732063616e206f6e6c7920626520646f6e65206279206120636f6e737581526020017f6d6572000000000000000000000000000000000000000000000000000000000081525060400191505060405180910390fd5b610c848161368a565b50565b610c9033612ac0565b1515610d2a576040517f08c379a00000000000000000000000000000000000000000000000000000000081526004018080602001828103825260218152602001807f546869732063616e206f6e6c7920626520646f6e652062792061206661726d6581526020017f720000000000000000000000000000000000000000000000000000000000000081525060400191505060405180910390fd5b8060016008811115610d3857fe5b6006600083815260200190815260200160002060030160009054906101000a900460ff166008811115610d6757fe5b141515610ddc576040517f08c379a00000000000000000000000000000000000000000000000000000000081526004018080602001828103825260188152602001807f4e6f7420726561647920666f722070726f63657373696e67000000000000000081525060200191505060405180910390fd5b60066000838152602001908152602001600020600a0160009054906101000a900473ffffffffffffffffffffffffffffffffffffffff168073ffffffffffffffffffffffffffffffffffffffff163373ffffffffffffffffffffffffffffffffffffffff16141515610edc576040517f08c379a000000000000000000000000000000000000000000000000000000000815260040180806020018281038252602b8152602001807f446f206e6f7420686176652074686520726967687420746f2063616c6c20746881526020017f69732066756e6374696f6e00000000000000000000000000000000000000000081525060400191505060405180910390fd5b60026006600085815260200190815260200160002060030160006101000a81548160ff02191690836008811115610f0f57fe5b02179055507f5afe3b1bf87069693c075da5c22a98d63d1aef98a30dbbe538d0781a98b77ee5836040518082815260200191505060405180910390a1505050565b610f58613dd6565b610f6133612ac0565b1515610ffb576040517f08c379a00000000000000000000000000000000000000000000000000000000081526004018080602001828103825260218152602001807f546869732063616e206f6e6c7920626520646f6e652062792061206661726d6581526020017f720000000000000000000000000000000000000000000000000000000000000081525060400191505060405180910390fd5b6001600554016005819055507f8e55ccfc9778ff8eba1646d765cf1982537ce0f9257054a17b48aad7452501836005546040518082815260200191505060405180910390a160408051908101604052808581526020018681525090506101a060405190810160405280600554815260200160008152602001600081526020016001600881111561108757fe5b81526020018981526020018881526020018781526020018281526020018481526020018373ffffffffffffffffffffffffffffffffffffffff168152602001600073ffffffffffffffffffffffffffffffffffffffff168152602001600073ffffffffffffffffffffffffffffffffffffffff168152602001600073ffffffffffffffffffffffffffffffffffffffff16815250600660008a815260200190815260200160002060008201518160000155602082015181600101556040820151816002015560608201518160030160006101000a81548160ff0219169083600881111561117057fe5b02179055506080820151816004015560a082015181600501908051906020019061119b929190613df0565b5060c08201518160060190805190602001906111b8929190613df0565b5060e08201518160070160008201518160000190805190602001906111de929190613df0565b5060208201518160010190805190602001906111fb929190613df0565b50505061010082015181600901908051906020019061121b929190613df0565b5061012082015181600a0160006101000a81548173ffffffffffffffffffffffffffffffffffffffff021916908373ffffffffffffffffffffffffffffffffffffffff16021790555061014082015181600b0160006101000a81548173ffffffffffffffffffffffffffffffffffffffff021916908373ffffffffffffffffffffffffffffffffffffffff16021790555061016082015181600c0160006101000a81548173ffffffffffffffffffffffffffffffffffffffff021916908373ffffffffffffffffffffffffffffffffffffffff16021790555061018082015181600d0160006101000a81548173ffffffffffffffffffffffffffffffffffffffff021916908373ffffffffffffffffffffffffffffffffffffffff1602179055509050505050505050505050565b61135233612ac0565b15156113ec576040517f08c379a00000000000000000000000000000000000000000000000000000000081526004018080602001828103825260218152602001807f546869732063616e206f6e6c7920626520646f6e652062792061206661726d6581526020017f720000000000000000000000000000000000000000000000000000000000000081525060400191505060405180910390fd5b80600260088111156113fa57fe5b6006600083815260200190815260200160002060030160009054906101000a900460ff16600881111561142957fe5b14151561149e576040517f08c379a00000000000000000000000000000000000000000000000000000000081526004018080602001828103825260158152602001807f4e6f7420726561647920666f72207061636b696e67000000000000000000000081525060200191505060405180910390fd5b60066000838152602001908152602001600020600a0160009054906101000a900473ffffffffffffffffffffffffffffffffffffffff168073ffffffffffffffffffffffffffffffffffffffff163373ffffffffffffffffffffffffffffffffffffffff1614151561159e576040517f08c379a000000000000000000000000000000000000000000000000000000000815260040180806020018281038252602b8152602001807f446f206e6f7420686176652074686520726967687420746f2063616c6c20746881526020017f69732066756e6374696f6e00000000000000000000000000000000000000000081525060400191505060405180910390fd5b60036006600085815260200190815260200160002060030160006101000a81548160ff021916908360088111156115d157fe5b02179055507f9b3b66e2380b690bae22c73ef1428fb0c91e72fe14a4b6defa13035214187aff836040518082815260200191505060405180910390a1505050565b60008061161e33612a4c565b15156116b8576040517f08c379a00000000000000000000000000000000000000000000000000000000081526004018080602001828103825260268152602001807f546869732063616e206f6e6c7920626520646f6e65206279206120646973747281526020017f696275746f72000000000000000000000000000000000000000000000000000081525060400191505060405180910390fd5b83600460088111156116c657fe5b6006600083815260200190815260200160002060030160009054906101000a900460ff1660088111156116f557fe5b14151561176a576040517f08c379a00000000000000000000000000000000000000000000000000000000081526004018080602001828103825260148152602001807f4e6f7420726561647920666f7220627579696e6700000000000000000000000081525060200191505060405180910390fd5b60066000868152602001908152602001600020600101548034101515156117f9576040517f08c379a00000000000000000000000000000000000000000000000000000000081526004018080602001828103825260148152602001807f48617665206e6f74207061696420656e6f75676800000000000000000000000081525060200191505060405180910390fd5b856001600080339750600660008b815260200190815260200160002060010154965087600660008c8152602001908152602001600020600b0160006101000a81548173ffffffffffffffffffffffffffffffffffffffff021916908373ffffffffffffffffffffffffffffffffffffffff16021790555088600660008c8152602001908152602001600020600201819055506005600660008c815260200190815260200160002060030160006101000a81548160ff021916908360088111156118be57fe5b0217905550600660008b8152602001908152602001600020600a0160009054906101000a900473ffffffffffffffffffffffffffffffffffffffff1673ffffffffffffffffffffffffffffffffffffffff166108fc889081150290604051600060405180830381858888f1935050505015801561193f573d6000803e3d6000fd5b507f4e08ba899977cf7d4c2964bce71c6b9a7ef76ee5166a4c1249a1e08016e33ef18a6040518082815260200191505060405180910390a1600183141561199e57600660008581526020019081526020016000206001015491506119b8565b600660008581526020019081526020016000206002015491505b81340390506001831415611a485760066000858152602001908152602001600020600b0160009054906101000a900473ffffffffffffffffffffffffffffffffffffffff1673ffffffffffffffffffffffffffffffffffffffff166108fc829081150290604051600060405180830381858888f19350505050158015611a42573d6000803e3d6000fd5b50611ac6565b60066000858152602001908152602001600020600d0160009054906101000a900473ffffffffffffffffffffffffffffffffffffffff1673ffffffffffffffffffffffffffffffffffffffff166108fc829081150290604051600060405180830381858888f19350505050158015611ac4573d6000803e3d6000fd5b505b50505050505050505050565b6000611ae882600361370490919063ffffffff16565b9050919050565b611af833612734565b1515611b92576040517f08c379a00000000000000000000000000000000000000000000000000000000081526004018080602001828103825260238152602001807f546869732063616e206f6e6c7920626520646f6e65206279206120636f6e737581526020017f6d6572000000000000000000000000000000000000000000000000000000000081525060400191505060405180910390fd5b611b9b33613798565b565b611ba633612a4c565b1515611c40576040517f08c379a00000000000000000000000000000000000000000000000000000000081526004018080602001828103825260268152602001807f546869732063616e206f6e6c7920626520646f6e65206279206120646973747281526020017f696275746f72000000000000000000000000000000000000000000000000000081525060400191505060405180910390fd5b611c4933613812565b565b6000806000606060006060806000600660008a8152602001908152602001600020600001549750600660008a8152602001908152602001600020600101549650600660008a8152602001908152602001600020600201549550600660008a815260200190815260200160002060030160009054906101000a900460ff166008811115611cd357fe5b90506001811415611d17576040805190810160405280600981526020017f486172766573746564000000000000000000000000000000000000000000000081525094505b6002811415611d59576040805190810160405280600981526020017f50726f636573736564000000000000000000000000000000000000000000000081525094505b6003811415611d9b576040805190810160405280600681526020017f5061636b6564000000000000000000000000000000000000000000000000000081525094505b6004811415611ddd576040805190810160405280600a81526020017f416476657274697365640000000000000000000000000000000000000000000081525094505b6005811415611e1f576040805190810160405280600681526020017f426f75676874000000000000000000000000000000000000000000000000000081525094505b6006811415611e61576040805190810160405280600781526020017f536869707065640000000000000000000000000000000000000000000000000081525094505b6007811415611ea3576040805190810160405280600881526020017f526563656976656400000000000000000000000000000000000000000000000081525094505b6008811415611ee5576040805190810160405280600981526020017f507572636861736564000000000000000000000000000000000000000000000081525094505b600660008a8152602001908152602001600020600401549350600660008a81526020019081526020016000206005018054600181600116156101000203166002900480601f016020809104026020016040519081016040528092919081815260200182805460018160011615610100020316600290048015611fa85780601f10611f7d57610100808354040283529160200191611fa8565b820191906000526020600020905b815481529060010190602001808311611f8b57829003601f168201915b50505050509250600660008a81526020019081526020016000206006018054600181600116156101000203166002900480601f0160208091040260200160405190810160405280929190818152602001828054600181600116156101000203166002900480156120595780601f1061202e57610100808354040283529160200191612059565b820191906000526020600020905b81548152906001019060200180831161203c57829003601f168201915b5050505050915087878787878787975097509750975097509750975050919395979092949650565b612089612a69565b1515612123576040517f08c379a00000000000000000000000000000000000000000000000000000000081526004018080602001828103825260268152602001807f596f7520617265206e6f7420746865206f776e6572206f66207468697320636f81526020017f6e7472616374000000000000000000000000000000000000000000000000000081525060400191505060405180910390fd5b600073ffffffffffffffffffffffffffffffffffffffff166000809054906101000a900473ffffffffffffffffffffffffffffffffffffffff1673ffffffffffffffffffffffffffffffffffffffff167f5c486528ec3e3f0ea91181cff8116f02bfa350e03b8b6f12e00765adbb5af85c60405160405180910390a360008060006101000a81548173ffffffffffffffffffffffffffffffffffffffff021916908373ffffffffffffffffffffffffffffffffffffffff160217905550565b6121eb33612a4c565b1515612285576040517f08c379a00000000000000000000000000000000000000000000000000000000081526004018080602001828103825260268152602001807f546869732063616e206f6e6c7920626520646f6e65206279206120646973747281526020017f696275746f72000000000000000000000000000000000000000000000000000081525060400191505060405180910390fd5b61228e8161388c565b50565b60006060806060600080600080600660008a8152602001908152602001600020600001549750600660008a81526020019081526020016000206007016000018054600181600116156101000203166002900480601f0160208091040260200160405190810160405280929190818152602001828054600181600116156101000203166002900480156123645780601f1061233957610100808354040283529160200191612364565b820191906000526020600020905b81548152906001019060200180831161234757829003601f168201915b50505050509650600660008a81526020019081526020016000206007016001018054600181600116156101000203166002900480601f0160208091040260200160405190810160405280929190818152602001828054600181600116156101000203166002900480156124185780601f106123ed57610100808354040283529160200191612418565b820191906000526020600020905b8154815290600101906020018083116123fb57829003601f168201915b50505050509550600660008a81526020019081526020016000206009018054600181600116156101000203166002900480601f0160208091040260200160405190810160405280929190818152602001828054600181600116156101000203166002900480156124c95780601f1061249e576101008083540402835291602001916124c9565b820191906000526020600020905b8154815290600101906020018083116124ac57829003601f168201915b50505050509450600660008a8152602001908152602001600020600a0160009054906101000a900473ffffffffffffffffffffffffffffffffffffffff169350600660008a8152602001908152602001600020600b0160009054906101000a900473ffffffffffffffffffffffffffffffffffffffff169250600660008a8152602001908152602001600020600c0160009054906101000a900473ffffffffffffffffffffffffffffffffffffffff169150600660008a8152602001908152602001600020600d0160009054906101000a900473ffffffffffffffffffffffffffffffffffffffff169050878787878787878797509750975097509750975097509750919395975091939597565b6125e033612ac0565b151561267a576040517f08c379a00000000000000000000000000000000000000000000000000000000081526004018080602001828103825260218152602001807f546869732063616e206f6e6c7920626520646f6e652062792061206661726d6581526020017f720000000000000000000000000000000000000000000000000000000000000081525060400191505060405180910390fd5b61268381613906565b50565b61268f33612ac0565b1515612729576040517f08c379a00000000000000000000000000000000000000000000000000000000081526004018080602001828103825260218152602001807f546869732063616e206f6e6c7920626520646f6e652062792061206661726d6581526020017f720000000000000000000000000000000000000000000000000000000000000081525060400191505060405180910390fd5b61273233613980565b565b600061274a82600461370490919063ffffffff16565b9050919050565b600061275c33611ad2565b15156127f6576040517f08c379a00000000000000000000000000000000000000000000000000000000081526004018080602001828103825260238152602001807f546869732063616e206f6e6c7920626520646f6e65206279206120726574616981526020017f6c6572000000000000000000000000000000000000000000000000000000000081525060400191505060405180910390fd5b816006600881111561280457fe5b6006600083815260200190815260200160002060030160009054906101000a900460ff16600881111561283357fe5b1415156128a8576040517f08c379a00000000000000000000000000000000000000000000000000000000081526004018080602001828103825260178152602001807f4e6f7420726561647920666f7220726563656976696e6700000000000000000081525060200191505060405180910390fd5b3391508160066000858152602001908152602001600020600c0160006101000a81548173ffffffffffffffffffffffffffffffffffffffff021916908373ffffffffffffffffffffffffffffffffffffffff16021790555060076006600085815260200190815260200160002060030160006101000a81548160ff0219169083600881111561293357fe5b02179055507fa8142743f8f70a4c26f3691cf4ed59718381fb2f18070ec52be1f1022d855557836040518082815260200191505060405180910390a1505050565b60008060009054906101000a900473ffffffffffffffffffffffffffffffffffffffff16905090565b6129a633611ad2565b1515612a40576040517f08c379a00000000000000000000000000000000000000000000000000000000081526004018080602001828103825260238152602001807f546869732063616e206f6e6c7920626520646f6e65206279206120726574616981526020017f6c6572000000000000000000000000000000000000000000000000000000000081525060400191505060405180910390fd5b612a49816139fa565b50565b6000612a6282600261370490919063ffffffff16565b9050919050565b60008060009054906101000a900473ffffffffffffffffffffffffffffffffffffffff1673ffffffffffffffffffffffffffffffffffffffff163373ffffffffffffffffffffffffffffffffffffffff1614905090565b6000612ad682600161370490919063ffffffff16565b9050919050565b612ae633612ac0565b1515612b80576040517f08c379a00000000000000000000000000000000000000000000000000000000081526004018080602001828103825260218152602001807f546869732063616e206f6e6c7920626520646f6e652062792061206661726d6581526020017f720000000000000000000000000000000000000000000000000000000000000081525060400191505060405180910390fd5b8060056008811115612b8e57fe5b6006600083815260200190815260200160002060030160009054906101000a900460ff166008811115612bbd57fe5b141515612c32576040517f08c379a00000000000000000000000000000000000000000000000000000000081526004018080602001828103825260168152602001807f4e6f7420726561647920666f72207368697070696e670000000000000000000081525060200191505060405180910390fd5b60066000838152602001908152602001600020600a0160009054906101000a900473ffffffffffffffffffffffffffffffffffffffff168073ffffffffffffffffffffffffffffffffffffffff163373ffffffffffffffffffffffffffffffffffffffff16141515612d32576040517f08c379a000000000000000000000000000000000000000000000000000000000815260040180806020018281038252602b8152602001807f446f206e6f7420686176652074686520726967687420746f2063616c6c20746881526020017f69732066756e6374696f6e00000000000000000000000000000000000000000081525060400191505060405180910390fd5b600680600085815260200190815260200160002060030160006101000a81548160ff02191690836008811115612d6457fe5b02179055507ff00b9a5725b80c54016f42114f6ed7792d22eecb116011c4afac29c57bef6c95836040518082815260200191505060405180910390a1505050565b612dae33611ad2565b1515612e48576040517f08c379a00000000000000000000000000000000000000000000000000000000081526004018080602001828103825260238152602001807f546869732063616e206f6e6c7920626520646f6e65206279206120726574616981526020017f6c6572000000000000000000000000000000000000000000000000000000000081525060400191505060405180910390fd5b612e5133613a74565b565b612e5c33612ac0565b1515612ef6576040517f08c379a00000000000000000000000000000000000000000000000000000000081526004018080602001828103825260218152602001807f546869732063616e206f6e6c7920626520646f6e652062792061206661726d6581526020017f720000000000000000000000000000000000000000000000000000000000000081525060400191505060405180910390fd5b8160036008811115612f0457fe5b6006600083815260200190815260200160002060030160009054906101000a900460ff166008811115612f3357fe5b141515612fa8576040517f08c379a00000000000000000000000000000000000000000000000000000000081526004018080602001828103825260198152602001807f4e6f7420726561647920666f72206164766572746973696e670000000000000081525060200191505060405180910390fd5b60066000848152602001908152602001600020600a0160009054906101000a900473ffffffffffffffffffffffffffffffffffffffff168073ffffffffffffffffffffffffffffffffffffffff163373ffffffffffffffffffffffffffffffffffffffff161415156130a8576040517f08c379a000000000000000000000000000000000000000000000000000000000815260040180806020018281038252602b8152602001807f446f206e6f7420686176652074686520726967687420746f2063616c6c20746881526020017f69732066756e6374696f6e00000000000000000000000000000000000000000081525060400191505060405180910390fd5b82600660008681526020019081526020016000206001018190555060046006600086815260200190815260200160002060030160006101000a81548160ff021916908360088111156130f657fe5b02179055507f26aeaf6aa11656fd0fe35f8f689c6755044c86f4727f1f77785c515cdab7994c846040518082815260200191505060405180910390a150505050565b60008061314433612734565b15156131de576040517f08c379a00000000000000000000000000000000000000000000000000000000081526004018080602001828103825260238152602001807f546869732063616e206f6e6c7920626520646f6e65206279206120636f6e737581526020017f6d6572000000000000000000000000000000000000000000000000000000000081525060400191505060405180910390fd5b82600760088111156131ec57fe5b6006600083815260200190815260200160002060030160009054906101000a900460ff16600881111561321b57fe5b141515613290576040517f08c379a00000000000000000000000000000000000000000000000000000000081526004018080602001828103825260188152602001807f4e6f7420726561647920666f722070757263686173696e67000000000000000081525060200191505060405180910390fd5b600660008581526020019081526020016000206002015480341015151561331f576040517f08c379a00000000000000000000000000000000000000000000000000000000081526004018080602001828103825260148152602001807f48617665206e6f74207061696420656e6f75676800000000000000000000000081525060200191505060405180910390fd5b846000806000339750600660008a815260200190815260200160002060020154965087600660008b8152602001908152602001600020600d0160006101000a81548173ffffffffffffffffffffffffffffffffffffffff021916908373ffffffffffffffffffffffffffffffffffffffff1602179055506008600660008b815260200190815260200160002060030160006101000a81548160ff021916908360088111156133c957fe5b0217905550600660008a8152602001908152602001600020600b0160009054906101000a900473ffffffffffffffffffffffffffffffffffffffff1673ffffffffffffffffffffffffffffffffffffffff166108fc889081150290604051600060405180830381858888f1935050505015801561344a573d6000803e3d6000fd5b507f653d56639fee6b566a5c804764e9689de38645f0b733df89a36a1b7b42173dd8896040518082815260200191505060405180910390a160018314156134a957600660008581526020019081526020016000206001015491506134c3565b600660008581526020019081526020016000206002015491505b813403905060018314156135535760066000858152602001908152602001600020600b0160009054906101000a900473ffffffffffffffffffffffffffffffffffffffff1673ffffffffffffffffffffffffffffffffffffffff166108fc829081150290604051600060405180830381858888f1935050505015801561354d573d6000803e3d6000fd5b506135d1565b60066000858152602001908152602001600020600d0160009054906101000a900473ffffffffffffffffffffffffffffffffffffffff1673ffffffffffffffffffffffffffffffffffffffff166108fc829081150290604051600060405180830381858888f193505050501580156135cf573d6000803e3d6000fd5b505b505050505050505050565b6135e4612a69565b151561367e576040517f08c379a00000000000000000000000000000000000000000000000000000000081526004018080602001828103825260268152602001807f596f7520617265206e6f7420746865206f776e6572206f66207468697320636f81526020017f6e7472616374000000000000000000000000000000000000000000000000000081525060400191505060405180910390fd5b61368781613aee565b50565b61369e816004613c7790919063ffffffff16565b7f28b26e7a3d20aedbc5f8f2ebf7da671c0491723a2b78f47a097b0e46dee0714281604051808273ffffffffffffffffffffffffffffffffffffffff1673ffffffffffffffffffffffffffffffffffffffff16815260200191505060405180910390a150565b60008073ffffffffffffffffffffffffffffffffffffffff168273ffffffffffffffffffffffffffffffffffffffff161415151561374157600080fd5b8260000160008373ffffffffffffffffffffffffffffffffffffffff1673ffffffffffffffffffffffffffffffffffffffff16815260200190815260200160002060009054906101000a900460ff16905092915050565b6137ac816004613d2790919063ffffffff16565b7fe3f5ed5f263f1f01764a96edfc7d025f511ec5f7d180e8816908b78bcf74f09881604051808273ffffffffffffffffffffffffffffffffffffffff1673ffffffffffffffffffffffffffffffffffffffff16815260200191505060405180910390a150565b613826816002613d2790919063ffffffff16565b7f126174f6cf49c81cdb4a9214c6b8f037bef55b4ec31e4fc776cea2a1c8a88d5981604051808273ffffffffffffffffffffffffffffffffffffffff1673ffffffffffffffffffffffffffffffffffffffff16815260200191505060405180910390a150565b6138a0816002613c7790919063ffffffff16565b7fddbf200aa634dc3fb81cfd68583dd1040d1c751d335e1d86b631bde3e977fea881604051808273ffffffffffffffffffffffffffffffffffffffff1673ffffffffffffffffffffffffffffffffffffffff16815260200191505060405180910390a150565b61391a816001613c7790919063ffffffff16565b7f2e0ded4123377a3c2bc9a26f1717655a129e2f20752924d42e730ec89c83dbd081604051808273ffffffffffffffffffffffffffffffffffffffff1673ffffffffffffffffffffffffffffffffffffffff16815260200191505060405180910390a150565b613994816001613d2790919063ffffffff16565b7fa5e0f060af304ab17dd418c7927e3da3ae7868189bf387aee09ab179ccc572f281604051808273ffffffffffffffffffffffffffffffffffffffff1673ffffffffffffffffffffffffffffffffffffffff16815260200191505060405180910390a150565b613a0e816003613c7790919063ffffffff16565b7f71ae26cad02663e3d92efd6ec56031a80d74a20c0ab4183faa8bf262261c9baa81604051808273ffffffffffffffffffffffffffffffffffffffff1673ffffffffffffffffffffffffffffffffffffffff16815260200191505060405180910390a150565b613a88816003613d2790919063ffffffff16565b7fdb7176e79cffef81cb01767dd0447a0b24bb72ca9778d4b245581086b2a7e6db81604051808273ffffffffffffffffffffffffffffffffffffffff1673ffffffffffffffffffffffffffffffffffffffff16815260200191505060405180910390a150565b600073ffffffffffffffffffffffffffffffffffffffff168173ffffffffffffffffffffffffffffffffffffffff1614151515613bb9576040517f08c379a00000000000000000000000000000000000000000000000000000000081526004018080602001828103825260268152602001807f596f7520617265206e6f7420746865206f776e6572206f66207468697320636f81526020017f6e7472616374000000000000000000000000000000000000000000000000000081525060400191505060405180910390fd5b8073ffffffffffffffffffffffffffffffffffffffff166000809054906101000a900473ffffffffffffffffffffffffffffffffffffffff1673ffffffffffffffffffffffffffffffffffffffff167f5c486528ec3e3f0ea91181cff8116f02bfa350e03b8b6f12e00765adbb5af85c60405160405180910390a3806000806101000a81548173ffffffffffffffffffffffffffffffffffffffff021916908373ffffffffffffffffffffffffffffffffffffffff16021790555050565b600073ffffffffffffffffffffffffffffffffffffffff168173ffffffffffffffffffffffffffffffffffffffff1614151515613cb357600080fd5b613cbd8282613704565b151515613cc957600080fd5b60018260000160008373ffffffffffffffffffffffffffffffffffffffff1673ffffffffffffffffffffffffffffffffffffffff16815260200190815260200160002060006101000a81548160ff0219169083151502179055505050565b600073ffffffffffffffffffffffffffffffffffffffff168173ffffffffffffffffffffffffffffffffffffffff1614151515613d6357600080fd5b613d6d8282613704565b1515613d7857600080fd5b60008260000160008373ffffffffffffffffffffffffffffffffffffffff1673ffffffffffffffffffffffffffffffffffffffff16815260200190815260200160002060006101000a81548160ff0219169083151502179055505050565b604080519081016040528060608152602001606081525090565b828054600181600116156101000203166002900490600052602060002090601f016020900481019282601f10613e3157805160ff1916838001178555613e5f565b82800160010185558215613e5f579182015b82811115613e5e578251825591602001919060010190613e43565b5b509050613e6c9190613e70565b5090565b613e9291905b80821115613e8e576000816000905550600101613e76565b5090565b905600a165627a7a72305820b053f72cdba03013e87453c21c77e270cad6ca1132da6629fd5d4421f9b1b6a80029",
  "source": "pragma solidity >=0.4.24;\n\nimport \"../access_control/Farmer.sol\";\nimport \"../access_control/Distributor.sol\";\nimport \"../access_control/Retailer.sol\";\nimport \"../access_control/Consumer.sol\";\nimport \"../core/Ownable.sol\";\n\n\ncontract SupplyChain is Ownable, Farmer, Distributor, Retailer, Consumer {\n    uint256 skuCount;\n    enum State {\n        NonExistant,\n        Harvested,\n        Processed,\n        Packed,\n        Advertised,\n        Bought,\n        Shipped,\n        Received,\n        Purchased\n    }\n    struct Coordinates {\n        string lat;\n        string long;\n    }\n    struct CoffeeLot {\n        uint256 sku;\n        uint256 sellingPrice;\n        uint256 purchasingPrice;\n        State state;\n        uint256 productUpc;\n        string farm;\n        string organizationInfo;\n        Coordinates coordinates;\n        string notes;\n        address farmer;\n        address buyer;\n        address retailer;\n        address consumer;\n    }\n    mapping(uint256 => CoffeeLot) coffeeLots;\n    event Harvested(uint256 upc);\n    event Processed(uint256 upc);\n    event Packed(uint256 upc);\n    event Advertised(uint256 upc);\n    event Bought(uint256 upc);\n    event Shipped(uint256 upc);\n    event Received(uint256 upc);\n    event Purchased(uint256 upc);\n    modifier verifyCaller(address _address) {\n        require(\n            msg.sender == _address,\n            \"Do not have the right to call this function\"\n        );\n        _;\n    }\n    modifier paidEnough(uint256 _price) {\n        require(msg.value >= _price, \"Have not paid enough\");\n        _;\n    }\n    modifier readyForProcessing(uint256 _upc) {\n        require(\n            coffeeLots[_upc].state == State.Harvested,\n            \"Not ready for processing\"\n        );\n        _;\n    }\n    modifier readyForPacking(uint256 _upc) {\n        require(\n            coffeeLots[_upc].state == State.Processed,\n            \"Not ready for packing\"\n        );\n        _;\n    }\n    modifier readyForAdvertising(uint256 _upc) {\n        require(\n            coffeeLots[_upc].state == State.Packed,\n            \"Not ready for advertising\"\n        );\n        _;\n    }\n    modifier readyForBuying(uint256 _upc) {\n        require(\n            coffeeLots[_upc].state == State.Advertised,\n            \"Not ready for buying\"\n        );\n        _;\n    }\n    modifier readyForShipping(uint256 _upc) {\n        require(\n            coffeeLots[_upc].state == State.Bought,\n            \"Not ready for shipping\"\n        );\n        _;\n    }\n    modifier readyForReceiving(uint256 _upc) {\n        require(\n            coffeeLots[_upc].state == State.Shipped,\n            \"Not ready for receiving\"\n        );\n        _;\n    }\n    modifier readyForPurchasing(uint256 _upc) {\n        require(\n            coffeeLots[_upc].state == State.Received,\n            \"Not ready for purchasing\"\n        );\n        _;\n    }\n    modifier checkValue(uint256 _upc, uint256 _checkType) {\n        _;\n        uint256 _price;\n        if (_checkType == 1) {\n            _price = coffeeLots[_upc].sellingPrice;\n        } else {\n            _price = coffeeLots[_upc].purchasingPrice;\n        }\n        uint256 amountToRefund = msg.value - _price;\n        if (_checkType == 1) {\n            coffeeLots[_upc].buyer.transfer(amountToRefund);\n        } else {\n            coffeeLots[_upc].consumer.transfer(amountToRefund);\n        }\n    }\n\n    constructor() public payable {\n        origOwner = msg.sender;\n        skuCount = 0;\n    }\n\n    function harvestCoffee(\n        uint256 _productUpc,\n        string _farm,\n        string _organizationInfo,\n        string _longitude,\n        string _latitude,\n        string _notes,\n        address _farmer\n    ) public onlyFarmer {\n        skuCount = skuCount + 1;\n\n        emit Harvested(skuCount);\n\n        Coordinates memory _coordinates = Coordinates({\n            lat: _latitude,\n            long: _longitude\n        });\n        coffeeLots[_productUpc] = CoffeeLot({\n            sku: skuCount,\n            sellingPrice: 0,\n            purchasingPrice: 0,\n            state: State.Harvested,\n            productUpc: _productUpc,\n            farm: _farm,\n            organizationInfo: _organizationInfo,\n            coordinates: _coordinates,\n            notes: _notes,\n            farmer: _farmer,\n            buyer: 0,\n            retailer: 0,\n            consumer: 0\n        });\n    }\n\n    function processCoffee(uint256 upc)\n        public\n        onlyFarmer\n        readyForProcessing(upc)\n        verifyCaller(coffeeLots[upc].farmer)\n    {\n        coffeeLots[upc].state = State.Processed;\n        emit Processed(upc);\n    }\n\n    function packCoffee(uint256 upc)\n        public\n        onlyFarmer\n        readyForPacking(upc)\n        verifyCaller(coffeeLots[upc].farmer)\n    {\n        coffeeLots[upc].state = State.Packed;\n        emit Packed(upc);\n    }\n\n    function advertiseCoffee(uint256 upc, uint256 sellingPrice)\n        public\n        onlyFarmer\n        readyForAdvertising(upc)\n        verifyCaller(coffeeLots[upc].farmer)\n    {\n        coffeeLots[upc].sellingPrice = sellingPrice;\n        coffeeLots[upc].state = State.Advertised;\n        emit Advertised(upc);\n    }\n\n    function buyCoffee(uint256 upc, uint256 consumerPriceToSet)\n        public\n        payable\n        onlyDistributor\n        readyForBuying(upc)\n        paidEnough(coffeeLots[upc].sellingPrice)\n        checkValue(upc, 1)\n    {\n        address buyer = msg.sender;\n        uint256 price = coffeeLots[upc].sellingPrice;\n        coffeeLots[upc].buyer = buyer;\n        coffeeLots[upc].purchasingPrice = consumerPriceToSet;\n        coffeeLots[upc].state = State.Bought;\n        coffeeLots[upc].farmer.transfer(price);\n        emit Bought(upc);\n    }\n\n    function shipCoffee(uint256 upc)\n        public\n        onlyFarmer\n        readyForShipping(upc)\n        verifyCaller(coffeeLots[upc].farmer)\n    {\n        coffeeLots[upc].state = State.Shipped;\n        emit Shipped(upc);\n    }\n\n    function receiveCoffee(uint256 upc)\n        public\n        onlyRetailer\n        readyForReceiving(upc)\n    {\n        address retailer = msg.sender;\n        coffeeLots[upc].retailer = retailer;\n        coffeeLots[upc].state = State.Received;\n        emit Received(upc);\n    }\n\n    function purchaseCoffee(uint256 upc)\n        public\n        payable\n        onlyConsumer\n        readyForPurchasing(upc)\n        paidEnough(coffeeLots[upc].purchasingPrice)\n        checkValue(upc, 0)\n    {\n        address consumer = msg.sender;\n        uint256 purchasingPrice = coffeeLots[upc].purchasingPrice;\n        coffeeLots[upc].consumer = consumer;\n        coffeeLots[upc].state = State.Purchased;\n        coffeeLots[upc].buyer.transfer(purchasingPrice);\n        emit Purchased(upc);\n    }\n\n    function trackCoffeeBufferOne(uint256 _upc)\n        public\n        view\n        returns (\n            uint256 sku,\n            uint256 sellingPrice,\n            uint256 purchasingPrice,\n            string stateIs,\n            uint256 productUpc,\n            string farm,\n            string organizationInfo\n        )\n    {\n        sku = coffeeLots[_upc].sku;\n        uint256 state;\n        sellingPrice = coffeeLots[_upc].sellingPrice;\n        purchasingPrice = coffeeLots[_upc].purchasingPrice;\n        state = uint256(coffeeLots[_upc].state);\n        if (state == 1) {\n            stateIs = \"Harvested\";\n        }\n        if (state == 2) {\n            stateIs = \"Processed\";\n        }\n        if (state == 3) {\n            stateIs = \"Packed\";\n        }\n        if (state == 4) {\n            stateIs = \"Advertised\";\n        }\n        if (state == 5) {\n            stateIs = \"Bought\";\n        }\n        if (state == 6) {\n            stateIs = \"Shipped\";\n        }\n        if (state == 7) {\n            stateIs = \"Received\";\n        }\n        if (state == 8) {\n            stateIs = \"Purchased\";\n        }\n        productUpc = coffeeLots[_upc].productUpc;\n        farm = coffeeLots[_upc].farm;\n        organizationInfo = coffeeLots[_upc].organizationInfo;\n\n        return (\n            sku,\n            sellingPrice,\n            purchasingPrice,\n            stateIs,\n            productUpc,\n            farm,\n            organizationInfo\n        );\n    }\n\n    function trackCoffeeBufferTwo(uint256 _upc)\n        public\n        view\n        returns (\n            uint256 sku,\n            string lat,\n            string long,\n            string notes,\n            address farmer,\n            address buyer,\n            address retailer,\n            address consumer\n        )\n    {\n        sku = coffeeLots[_upc].sku;\n        lat = string(coffeeLots[_upc].coordinates.lat);\n        long = string(coffeeLots[_upc].coordinates.long);\n        notes = coffeeLots[_upc].notes;\n        farmer = coffeeLots[_upc].farmer;\n        buyer = coffeeLots[_upc].buyer;\n        retailer = coffeeLots[_upc].retailer;\n        consumer = coffeeLots[_upc].consumer;\n        return (sku, lat, long, notes, farmer, buyer, retailer, consumer);\n    }\n}\n",
  "sourcePath": "/Users/cost/Documents/Courses/blockchain-nanodegree/projects/coffee_supply_chain/contracts/base/SupplyChain.sol",
  "compiler": {
    "name": "solc",
    "version": "0.4.26+commit.4563c3fc.Emscripten.clang"
  },
  "schemaVersion": "3.0.2",
  "updatedAt": "2020-03-30T21:15:42.279Z",
  "devdoc": {
    "methods": {}
  },
  "userdoc": {
    "methods": {}
  }
}