{
  "contractName": "SupplyChain",
  "abi": [
    {
      "constant": false,
      "inputs": [
        {
          "name": "consumerAddress",
          "type": "address"
        }
      ],
      "name": "addConsumer",
      "outputs": [],
      "payable": false,
      "stateMutability": "nonpayable",
      "type": "function",
      "signature": "0x112940f9"
    },
    {
      "constant": true,
      "inputs": [
        {
          "name": "retailerAddress",
          "type": "address"
        }
      ],
      "name": "isRetailer",
      "outputs": [
        {
          "name": "",
          "type": "bool"
        }
      ],
      "payable": false,
      "stateMutability": "view",
      "type": "function",
      "signature": "0x5da09b88"
    },
    {
      "constant": false,
      "inputs": [],
      "name": "renounceOwnership",
      "outputs": [],
      "payable": false,
      "stateMutability": "nonpayable",
      "type": "function",
      "signature": "0x715018a6"
    },
    {
      "constant": false,
      "inputs": [
        {
          "name": "distributorAddress",
          "type": "address"
        }
      ],
      "name": "addDistributor",
      "outputs": [],
      "payable": false,
      "stateMutability": "nonpayable",
      "type": "function",
      "signature": "0x7250e224"
    },
    {
      "constant": false,
      "inputs": [
        {
          "name": "farmerAddress",
          "type": "address"
        }
      ],
      "name": "addFarmer",
      "outputs": [],
      "payable": false,
      "stateMutability": "nonpayable",
      "type": "function",
      "signature": "0x80c3f96d"
    },
    {
      "constant": true,
      "inputs": [
        {
          "name": "consumerAddress",
          "type": "address"
        }
      ],
      "name": "isConsumer",
      "outputs": [
        {
          "name": "",
          "type": "bool"
        }
      ],
      "payable": false,
      "stateMutability": "view",
      "type": "function",
      "signature": "0x834ff739"
    },
    {
      "constant": true,
      "inputs": [],
      "name": "owner",
      "outputs": [
        {
          "name": "",
          "type": "address"
        }
      ],
      "payable": false,
      "stateMutability": "view",
      "type": "function",
      "signature": "0x8da5cb5b"
    },
    {
      "constant": false,
      "inputs": [
        {
          "name": "retailerAddress",
          "type": "address"
        }
      ],
      "name": "addRetailer",
      "outputs": [],
      "payable": false,
      "stateMutability": "nonpayable",
      "type": "function",
      "signature": "0x8ec4f505"
    },
    {
      "constant": true,
      "inputs": [
        {
          "name": "distributorAddress",
          "type": "address"
        }
      ],
      "name": "isDistributor",
      "outputs": [
        {
          "name": "",
          "type": "bool"
        }
      ],
      "payable": false,
      "stateMutability": "view",
      "type": "function",
      "signature": "0x8f0c86fa"
    },
    {
      "constant": true,
      "inputs": [],
      "name": "isOwner",
      "outputs": [
        {
          "name": "",
          "type": "bool"
        }
      ],
      "payable": false,
      "stateMutability": "view",
      "type": "function",
      "signature": "0x8f32d59b"
    },
    {
      "constant": true,
      "inputs": [
        {
          "name": "farmerAddress",
          "type": "address"
        }
      ],
      "name": "isFarmer",
      "outputs": [
        {
          "name": "",
          "type": "bool"
        }
      ],
      "payable": false,
      "stateMutability": "view",
      "type": "function",
      "signature": "0xb9429069"
    },
    {
      "constant": false,
      "inputs": [
        {
          "name": "newOwner",
          "type": "address"
        }
      ],
      "name": "transferOwnership",
      "outputs": [],
      "payable": false,
      "stateMutability": "nonpayable",
      "type": "function",
      "signature": "0xf2fde38b"
    },
    {
      "inputs": [],
      "payable": true,
      "stateMutability": "payable",
      "type": "constructor",
      "signature": "constructor"
    },
    {
      "anonymous": false,
      "inputs": [
        {
          "indexed": false,
          "name": "skuCount",
          "type": "uint256"
        }
      ],
      "name": "Harvested",
      "type": "event",
      "signature": "0x8e55ccfc9778ff8eba1646d765cf1982537ce0f9257054a17b48aad745250183"
    },
    {
      "anonymous": false,
      "inputs": [
        {
          "indexed": false,
          "name": "sku",
          "type": "uint256"
        }
      ],
      "name": "Processed",
      "type": "event",
      "signature": "0x5afe3b1bf87069693c075da5c22a98d63d1aef98a30dbbe538d0781a98b77ee5"
    },
    {
      "anonymous": false,
      "inputs": [
        {
          "indexed": false,
          "name": "sku",
          "type": "uint256"
        }
      ],
      "name": "Packed",
      "type": "event",
      "signature": "0x9b3b66e2380b690bae22c73ef1428fb0c91e72fe14a4b6defa13035214187aff"
    },
    {
      "anonymous": false,
      "inputs": [
        {
          "indexed": false,
          "name": "sku",
          "type": "uint256"
        }
      ],
      "name": "Added",
      "type": "event",
      "signature": "0x64a55044d1f2eddebe1b90e8e2853e8e96931cefadbfa0b2ceb34bee36061941"
    },
    {
      "anonymous": false,
      "inputs": [
        {
          "indexed": false,
          "name": "sku",
          "type": "uint256"
        }
      ],
      "name": "Bought",
      "type": "event",
      "signature": "0x4e08ba899977cf7d4c2964bce71c6b9a7ef76ee5166a4c1249a1e08016e33ef1"
    },
    {
      "anonymous": false,
      "inputs": [
        {
          "indexed": false,
          "name": "sku",
          "type": "uint256"
        }
      ],
      "name": "Shipped",
      "type": "event",
      "signature": "0xf00b9a5725b80c54016f42114f6ed7792d22eecb116011c4afac29c57bef6c95"
    },
    {
      "anonymous": false,
      "inputs": [
        {
          "indexed": false,
          "name": "sku",
          "type": "uint256"
        }
      ],
      "name": "Received",
      "type": "event",
      "signature": "0xa8142743f8f70a4c26f3691cf4ed59718381fb2f18070ec52be1f1022d855557"
    },
    {
      "anonymous": false,
      "inputs": [
        {
          "indexed": false,
          "name": "sku",
          "type": "uint256"
        }
      ],
      "name": "Purchased",
      "type": "event",
      "signature": "0x653d56639fee6b566a5c804764e9689de38645f0b733df89a36a1b7b42173dd8"
    },
    {
      "anonymous": false,
      "inputs": [
        {
          "indexed": false,
          "name": "consumer",
          "type": "address"
        }
      ],
      "name": "ConsumerAdded",
      "type": "event",
      "signature": "0x28b26e7a3d20aedbc5f8f2ebf7da671c0491723a2b78f47a097b0e46dee07142"
    },
    {
      "anonymous": false,
      "inputs": [
        {
          "indexed": false,
          "name": "retailer",
          "type": "address"
        }
      ],
      "name": "RetailerAdded",
      "type": "event",
      "signature": "0x71ae26cad02663e3d92efd6ec56031a80d74a20c0ab4183faa8bf262261c9baa"
    },
    {
      "anonymous": false,
      "inputs": [
        {
          "indexed": false,
          "name": "distributor",
          "type": "address"
        }
      ],
      "name": "DistributorAdded",
      "type": "event",
      "signature": "0xddbf200aa634dc3fb81cfd68583dd1040d1c751d335e1d86b631bde3e977fea8"
    },
    {
      "anonymous": false,
      "inputs": [
        {
          "indexed": false,
          "name": "farmer",
          "type": "address"
        }
      ],
      "name": "FarmerAdded",
      "type": "event",
      "signature": "0x2e0ded4123377a3c2bc9a26f1717655a129e2f20752924d42e730ec89c83dbd0"
    },
    {
      "anonymous": false,
      "inputs": [
        {
          "indexed": true,
          "name": "oldOwner",
          "type": "address"
        },
        {
          "indexed": true,
          "name": "newOwner",
          "type": "address"
        }
      ],
      "name": "TransferOwnership",
      "type": "event",
      "signature": "0x5c486528ec3e3f0ea91181cff8116f02bfa350e03b8b6f12e00765adbb5af85c"
    },
    {
      "constant": false,
      "inputs": [
        {
          "name": "_productUpc",
          "type": "string"
        },
        {
          "name": "_buyingPrice",
          "type": "uint256"
        },
        {
          "name": "_originationInformation",
          "type": "string"
        },
        {
          "name": "_farm",
          "type": "string"
        },
        {
          "name": "_organizationInfo",
          "type": "string"
        },
        {
          "name": "_longitude",
          "type": "string"
        },
        {
          "name": "_latitude",
          "type": "string"
        },
        {
          "name": "_notes",
          "type": "string"
        },
        {
          "name": "_farmer",
          "type": "address"
        }
      ],
      "name": "harvestCoffee",
      "outputs": [],
      "payable": false,
      "stateMutability": "nonpayable",
      "type": "function",
      "signature": "0xa2d43b32"
    },
    {
      "constant": false,
      "inputs": [
        {
          "name": "sku",
          "type": "uint256"
        }
      ],
      "name": "processCoffee",
      "outputs": [],
      "payable": false,
      "stateMutability": "nonpayable",
      "type": "function",
      "signature": "0x276268af"
    },
    {
      "constant": false,
      "inputs": [
        {
          "name": "sku",
          "type": "uint256"
        }
      ],
      "name": "packCoffee",
      "outputs": [],
      "payable": false,
      "stateMutability": "nonpayable",
      "type": "function",
      "signature": "0x3a2fc864"
    },
    {
      "constant": false,
      "inputs": [
        {
          "name": "sku",
          "type": "uint256"
        }
      ],
      "name": "addCoffee",
      "outputs": [],
      "payable": false,
      "stateMutability": "nonpayable",
      "type": "function",
      "signature": "0xd2e4d96a"
    },
    {
      "constant": false,
      "inputs": [
        {
          "name": "sku",
          "type": "uint256"
        },
        {
          "name": "buyingPrice",
          "type": "uint256"
        }
      ],
      "name": "buyCoffee",
      "outputs": [],
      "payable": true,
      "stateMutability": "payable",
      "type": "function",
      "signature": "0x40366ee4"
    },
    {
      "constant": false,
      "inputs": [
        {
          "name": "sku",
          "type": "uint256"
        }
      ],
      "name": "shipCoffee",
      "outputs": [],
      "payable": false,
      "stateMutability": "nonpayable",
      "type": "function",
      "signature": "0xd0daef64"
    },
    {
      "constant": false,
      "inputs": [
        {
          "name": "sku",
          "type": "uint256"
        }
      ],
      "name": "receiveCoffee",
      "outputs": [],
      "payable": false,
      "stateMutability": "nonpayable",
      "type": "function",
      "signature": "0x85822c7b"
    },
    {
      "constant": false,
      "inputs": [
        {
          "name": "sku",
          "type": "uint256"
        }
      ],
      "name": "purchaseCoffee",
      "outputs": [],
      "payable": true,
      "stateMutability": "payable",
      "type": "function",
      "signature": "0xee3f3c00"
    },
    {
      "constant": true,
      "inputs": [
        {
          "name": "_sku",
          "type": "uint256"
        }
      ],
      "name": "trackCoffeeBufferOne",
      "outputs": [
        {
          "name": "sku",
          "type": "uint256"
        },
        {
          "name": "buyingPrice",
          "type": "uint256"
        },
        {
          "name": "sellingPrice",
          "type": "uint256"
        },
        {
          "name": "stateIs",
          "type": "string"
        },
        {
          "name": "productUpc",
          "type": "string"
        },
        {
          "name": "originationInformation",
          "type": "string"
        },
        {
          "name": "farm",
          "type": "string"
        },
        {
          "name": "organizationInfo",
          "type": "string"
        }
      ],
      "payable": false,
      "stateMutability": "view",
      "type": "function",
      "signature": "0x6fcd935c"
    },
    {
      "constant": true,
      "inputs": [
        {
          "name": "_sku",
          "type": "uint256"
        }
      ],
      "name": "trackCoffeeBufferTwo",
      "outputs": [
        {
          "name": "sku",
          "type": "uint256"
        },
        {
          "name": "lat",
          "type": "string"
        },
        {
          "name": "long",
          "type": "string"
        },
        {
          "name": "notes",
          "type": "string"
        },
        {
          "name": "farmer",
          "type": "address"
        },
        {
          "name": "buyer",
          "type": "address"
        },
        {
          "name": "retailer",
          "type": "address"
        },
        {
          "name": "consumer",
          "type": "address"
        }
      ],
      "payable": false,
      "stateMutability": "view",
      "type": "function",
      "signature": "0x794c865a"
    }
  ],
  "bytecode": "0x6080604052336000806101000a81548173ffffffffffffffffffffffffffffffffffffffff021916908373ffffffffffffffffffffffffffffffffffffffff1602179055506000809054906101000a900473ffffffffffffffffffffffffffffffffffffffff1673ffffffffffffffffffffffffffffffffffffffff16600073ffffffffffffffffffffffffffffffffffffffff167f5c486528ec3e3f0ea91181cff8116f02bfa350e03b8b6f12e00765adbb5af85c60405160405180910390a3620000da3362000176640100000000026401000000009004565b620000f43362000200640100000000026401000000009004565b6200010e336200028a640100000000026401000000009004565b620001283362000314640100000000026401000000009004565b336000806101000a81548173ffffffffffffffffffffffffffffffffffffffff021916908373ffffffffffffffffffffffffffffffffffffffff1602179055506000600581905550620004f6565b6200019a8160016200039e64010000000002620039a6179091906401000000009004565b7f2e0ded4123377a3c2bc9a26f1717655a129e2f20752924d42e730ec89c83dbd081604051808273ffffffffffffffffffffffffffffffffffffffff1673ffffffffffffffffffffffffffffffffffffffff16815260200191505060405180910390a150565b620002248160026200039e64010000000002620039a6179091906401000000009004565b7fddbf200aa634dc3fb81cfd68583dd1040d1c751d335e1d86b631bde3e977fea881604051808273ffffffffffffffffffffffffffffffffffffffff1673ffffffffffffffffffffffffffffffffffffffff16815260200191505060405180910390a150565b620002ae8160036200039e64010000000002620039a6179091906401000000009004565b7f71ae26cad02663e3d92efd6ec56031a80d74a20c0ab4183faa8bf262261c9baa81604051808273ffffffffffffffffffffffffffffffffffffffff1673ffffffffffffffffffffffffffffffffffffffff16815260200191505060405180910390a150565b620003388160046200039e64010000000002620039a6179091906401000000009004565b7f28b26e7a3d20aedbc5f8f2ebf7da671c0491723a2b78f47a097b0e46dee0714281604051808273ffffffffffffffffffffffffffffffffffffffff1673ffffffffffffffffffffffffffffffffffffffff16815260200191505060405180910390a150565b600073ffffffffffffffffffffffffffffffffffffffff168173ffffffffffffffffffffffffffffffffffffffff1614151515620003db57600080fd5b620003f6828262000461640100000000026401000000009004565b1515156200040357600080fd5b60018260000160008373ffffffffffffffffffffffffffffffffffffffff1673ffffffffffffffffffffffffffffffffffffffff16815260200190815260200160002060006101000a81548160ff0219169083151502179055505050565b60008073ffffffffffffffffffffffffffffffffffffffff168273ffffffffffffffffffffffffffffffffffffffff16141515156200049f57600080fd5b8260000160008373ffffffffffffffffffffffffffffffffffffffff1673ffffffffffffffffffffffffffffffffffffffff16815260200190815260200160002060009054906101000a900460ff16905092915050565b613b4180620005066000396000f300608060405260043610610128576000357c0100000000000000000000000000000000000000000000000000000000900463ffffffff168063112940f91461012d578063276268af146101705780633a2fc8641461019d57806340366ee4146101ca5780635da09b88146101f45780636fcd935c1461024f578063715018a6146104ba5780637250e224146104d1578063794c865a1461051457806380c3f96d14610765578063834ff739146107a857806385822c7b146108035780638da5cb5b146108305780638ec4f505146108875780638f0c86fa146108ca5780638f32d59b14610925578063a2d43b3214610954578063b942906914610b8b578063d0daef6414610be6578063d2e4d96a14610c13578063ee3f3c0014610c40578063f2fde38b14610c60575b600080fd5b34801561013957600080fd5b5061016e600480360381019080803573ffffffffffffffffffffffffffffffffffffffff169060200190929190505050610ca3565b005b34801561017c57600080fd5b5061019b60048036038101908080359060200190929190505050610d52565b005b3480156101a957600080fd5b506101c86004803603810190808035906020019092919050505061101b565b005b6101f260048036038101908080359060200190929190803590602001909291905050506112e4565b005b34801561020057600080fd5b50610235600480360381019080803573ffffffffffffffffffffffffffffffffffffffff1690602001909291905050506117a4565b604051808215151515815260200191505060405180910390f35b34801561025b57600080fd5b5061027a600480360381019080803590602001909291905050506117c1565b60405180898152602001888152602001878152602001806020018060200180602001806020018060200186810386528b818151815260200191508051906020019080838360005b838110156102dc5780820151818401526020810190506102c1565b50505050905090810190601f1680156103095780820380516001836020036101000a031916815260200191505b5086810385528a818151815260200191508051906020019080838360005b83811015610342578082015181840152602081019050610327565b50505050905090810190601f16801561036f5780820380516001836020036101000a031916815260200191505b50868103845289818151815260200191508051906020019080838360005b838110156103a857808201518184015260208101905061038d565b50505050905090810190601f1680156103d55780820380516001836020036101000a031916815260200191505b50868103835288818151815260200191508051906020019080838360005b8381101561040e5780820151818401526020810190506103f3565b50505050905090810190601f16801561043b5780820380516001836020036101000a031916815260200191505b50868103825287818151815260200191508051906020019080838360005b83811015610474578082015181840152602081019050610459565b50505050905090810190601f1680156104a15780820380516001836020036101000a031916815260200191505b509d505050505050505050505050505060405180910390f35b3480156104c657600080fd5b506104cf611d2c565b005b3480156104dd57600080fd5b50610512600480360381019080803573ffffffffffffffffffffffffffffffffffffffff169060200190929190505050611e8d565b005b34801561052057600080fd5b5061053f60048036038101908080359060200190929190505050611f3c565b604051808981526020018060200180602001806020018873ffffffffffffffffffffffffffffffffffffffff1673ffffffffffffffffffffffffffffffffffffffff1681526020018773ffffffffffffffffffffffffffffffffffffffff1673ffffffffffffffffffffffffffffffffffffffff1681526020018673ffffffffffffffffffffffffffffffffffffffff1673ffffffffffffffffffffffffffffffffffffffff1681526020018573ffffffffffffffffffffffffffffffffffffffff1673ffffffffffffffffffffffffffffffffffffffff16815260200184810384528b818151815260200191508051906020019080838360005b8381101561065557808201518184015260208101905061063a565b50505050905090810190601f1680156106825780820380516001836020036101000a031916815260200191505b5084810383528a818151815260200191508051906020019080838360005b838110156106bb5780820151818401526020810190506106a0565b50505050905090810190601f1680156106e85780820380516001836020036101000a031916815260200191505b50848103825289818151815260200191508051906020019080838360005b83811015610721578082015181840152602081019050610706565b50505050905090810190601f16801561074e5780820380516001836020036101000a031916815260200191505b509b50505050505050505050505060405180910390f35b34801561077157600080fd5b506107a6600480360381019080803573ffffffffffffffffffffffffffffffffffffffff16906020019092919050505061226a565b005b3480156107b457600080fd5b506107e9600480360381019080803573ffffffffffffffffffffffffffffffffffffffff169060200190929190505050612319565b604051808215151515815260200191505060405180910390f35b34801561080f57600080fd5b5061082e60048036038101908080359060200190929190505050612336565b005b34801561083c57600080fd5b50610845612559565b604051808273ffffffffffffffffffffffffffffffffffffffff1673ffffffffffffffffffffffffffffffffffffffff16815260200191505060405180910390f35b34801561089357600080fd5b506108c8600480360381019080803573ffffffffffffffffffffffffffffffffffffffff169060200190929190505050612582565b005b3480156108d657600080fd5b5061090b600480360381019080803573ffffffffffffffffffffffffffffffffffffffff169060200190929190505050612631565b604051808215151515815260200191505060405180910390f35b34801561093157600080fd5b5061093a61264e565b604051808215151515815260200191505060405180910390f35b34801561096057600080fd5b50610b89600480360381019080803590602001908201803590602001908080601f016020809104026020016040519081016040528093929190818152602001838380828437820191505050505050919291929080359060200190929190803590602001908201803590602001908080601f0160208091040260200160405190810160405280939291908181526020018383808284378201915050505050509192919290803590602001908201803590602001908080601f0160208091040260200160405190810160405280939291908181526020018383808284378201915050505050509192919290803590602001908201803590602001908080601f0160208091040260200160405190810160405280939291908181526020018383808284378201915050505050509192919290803590602001908201803590602001908080601f0160208091040260200160405190810160405280939291908181526020018383808284378201915050505050509192919290803590602001908201803590602001908080601f0160208091040260200160405190810160405280939291908181526020018383808284378201915050505050509192919290803590602001908201803590602001908080601f0160208091040260200160405190810160405280939291908181526020018383808284378201915050505050509192919290803573ffffffffffffffffffffffffffffffffffffffff1690602001909291905050506126a5565b005b348015610b9757600080fd5b50610bcc600480360381019080803573ffffffffffffffffffffffffffffffffffffffff169060200190929190505050612ad8565b604051808215151515815260200191505060405180910390f35b348015610bf257600080fd5b50610c1160048036038101908080359060200190929190505050612af5565b005b348015610c1f57600080fd5b50610c3e60048036038101908080359060200190929190505050612d86565b005b610c5e6004803603810190808035906020019092919050505061304f565b005b348015610c6c57600080fd5b50610ca1600480360381019080803573ffffffffffffffffffffffffffffffffffffffff1690602001909291905050506134f3565b005b610cac33612319565b1515610d46576040517f08c379a00000000000000000000000000000000000000000000000000000000081526004018080602001828103825260238152602001807f546869732063616e206f6e6c7920626520646f6e65206279206120636f6e737581526020017f6d6572000000000000000000000000000000000000000000000000000000000081525060400191505060405180910390fd5b610d4f816135a1565b50565b610d5b33612ad8565b1515610df5576040517f08c379a00000000000000000000000000000000000000000000000000000000081526004018080602001828103825260218152602001807f546869732063616e206f6e6c7920626520646f6e652062792061206661726d6581526020017f720000000000000000000000000000000000000000000000000000000000000081525060400191505060405180910390fd5b8060016008811115610e0357fe5b6006600083815260200190815260200160002060030160009054906101000a900460ff166008811115610e3257fe5b141515610ea7576040517f08c379a00000000000000000000000000000000000000000000000000000000081526004018080602001828103825260188152602001807f4e6f7420726561647920666f722070726f63657373696e67000000000000000081525060200191505060405180910390fd5b60066000838152602001908152602001600020600b0160009054906101000a900473ffffffffffffffffffffffffffffffffffffffff168073ffffffffffffffffffffffffffffffffffffffff163373ffffffffffffffffffffffffffffffffffffffff16141515610fa7576040517f08c379a000000000000000000000000000000000000000000000000000000000815260040180806020018281038252602b8152602001807f446f206e6f7420686176652074686520726967687420746f2063616c6c20746881526020017f69732066756e6374696f6e00000000000000000000000000000000000000000081525060400191505060405180910390fd5b60026006600085815260200190815260200160002060030160006101000a81548160ff02191690836008811115610fda57fe5b02179055507f5afe3b1bf87069693c075da5c22a98d63d1aef98a30dbbe538d0781a98b77ee5836040518082815260200191505060405180910390a1505050565b61102433612ad8565b15156110be576040517f08c379a00000000000000000000000000000000000000000000000000000000081526004018080602001828103825260218152602001807f546869732063616e206f6e6c7920626520646f6e652062792061206661726d6581526020017f720000000000000000000000000000000000000000000000000000000000000081525060400191505060405180910390fd5b80600260088111156110cc57fe5b6006600083815260200190815260200160002060030160009054906101000a900460ff1660088111156110fb57fe5b141515611170576040517f08c379a00000000000000000000000000000000000000000000000000000000081526004018080602001828103825260158152602001807f4e6f7420726561647920666f72207061636b696e67000000000000000000000081525060200191505060405180910390fd5b60066000838152602001908152602001600020600b0160009054906101000a900473ffffffffffffffffffffffffffffffffffffffff168073ffffffffffffffffffffffffffffffffffffffff163373ffffffffffffffffffffffffffffffffffffffff16141515611270576040517f08c379a000000000000000000000000000000000000000000000000000000000815260040180806020018281038252602b8152602001807f446f206e6f7420686176652074686520726967687420746f2063616c6c20746881526020017f69732066756e6374696f6e00000000000000000000000000000000000000000081525060400191505060405180910390fd5b60036006600085815260200190815260200160002060030160006101000a81548160ff021916908360088111156112a357fe5b02179055507f9b3b66e2380b690bae22c73ef1428fb0c91e72fe14a4b6defa13035214187aff836040518082815260200191505060405180910390a1505050565b6000806112f033612631565b151561138a576040517f08c379a00000000000000000000000000000000000000000000000000000000081526004018080602001828103825260268152602001807f546869732063616e206f6e6c7920626520646f6e65206279206120646973747281526020017f696275746f72000000000000000000000000000000000000000000000000000081525060400191505060405180910390fd5b836004600881111561139857fe5b6006600083815260200190815260200160002060030160009054906101000a900460ff1660088111156113c757fe5b14151561143c576040517f08c379a00000000000000000000000000000000000000000000000000000000081526004018080602001828103825260148152602001807f4e6f7420726561647920666f7220627579696e6700000000000000000000000081525060200191505060405180910390fd5b60066000868152602001908152602001600020600101548034101515156114cb576040517f08c379a00000000000000000000000000000000000000000000000000000000081526004018080602001828103825260148152602001807f48617665206e6f74207061696420656e6f75676800000000000000000000000081525060200191505060405180910390fd5b856001600080339750600660008b815260200190815260200160002060010154965087600660008c8152602001908152602001600020600c0160006101000a81548173ffffffffffffffffffffffffffffffffffffffff021916908373ffffffffffffffffffffffffffffffffffffffff16021790555088600660008c8152602001908152602001600020600201819055506005600660008c815260200190815260200160002060030160006101000a81548160ff0219169083600881111561159057fe5b0217905550600660008b8152602001908152602001600020600b0160009054906101000a900473ffffffffffffffffffffffffffffffffffffffff1673ffffffffffffffffffffffffffffffffffffffff166108fc889081150290604051600060405180830381858888f19350505050158015611611573d6000803e3d6000fd5b507f4e08ba899977cf7d4c2964bce71c6b9a7ef76ee5166a4c1249a1e08016e33ef18a6040518082815260200191505060405180910390a16001831415611670576006600085815260200190815260200160002060010154915061168a565b600660008581526020019081526020016000206002015491505b8134039050600183141561171a5760066000858152602001908152602001600020600c0160009054906101000a900473ffffffffffffffffffffffffffffffffffffffff1673ffffffffffffffffffffffffffffffffffffffff166108fc829081150290604051600060405180830381858888f19350505050158015611714573d6000803e3d6000fd5b50611798565b60066000858152602001908152602001600020600e0160009054906101000a900473ffffffffffffffffffffffffffffffffffffffff1673ffffffffffffffffffffffffffffffffffffffff166108fc829081150290604051600060405180830381858888f19350505050158015611796573d6000803e3d6000fd5b505b50505050505050505050565b60006117ba82600361361b90919063ffffffff16565b9050919050565b600080600060608060608060606000600660008b8152602001908152602001600020600001549850600660008b8152602001908152602001600020600101549750600660008b8152602001908152602001600020600201549650600660008b815260200190815260200160002060030160009054906101000a900460ff16600881111561184a57fe5b9050600181141561188e576040805190810160405280600981526020017f486172766573746564000000000000000000000000000000000000000000000081525095505b60028114156118d0576040805190810160405280600981526020017f50726f636573736564000000000000000000000000000000000000000000000081525095505b6003811415611912576040805190810160405280600681526020017f5061636b6564000000000000000000000000000000000000000000000000000081525095505b6004811415611954576040805190810160405280600581526020017f416464656400000000000000000000000000000000000000000000000000000081525095505b6005811415611996576040805190810160405280600681526020017f426f75676874000000000000000000000000000000000000000000000000000081525095505b60068114156119d8576040805190810160405280600781526020017f536869707065640000000000000000000000000000000000000000000000000081525095505b6007811415611a1a576040805190810160405280600881526020017f526563656976656400000000000000000000000000000000000000000000000081525095505b6008811415611a5c576040805190810160405280600981526020017f507572636861736564000000000000000000000000000000000000000000000081525095505b600660008b81526020019081526020016000206004018054600181600116156101000203166002900480601f016020809104026020016040519081016040528092919081815260200182805460018160011615610100020316600290048015611b065780601f10611adb57610100808354040283529160200191611b06565b820191906000526020600020905b815481529060010190602001808311611ae957829003601f168201915b50505050509450600660008b81526020019081526020016000206005018054600181600116156101000203166002900480601f016020809104026020016040519081016040528092919081815260200182805460018160011615610100020316600290048015611bb75780601f10611b8c57610100808354040283529160200191611bb7565b820191906000526020600020905b815481529060010190602001808311611b9a57829003601f168201915b50505050509350600660008b81526020019081526020016000206006018054600181600116156101000203166002900480601f016020809104026020016040519081016040528092919081815260200182805460018160011615610100020316600290048015611c685780601f10611c3d57610100808354040283529160200191611c68565b820191906000526020600020905b815481529060010190602001808311611c4b57829003601f168201915b50505050509250600660008b81526020019081526020016000206007018054600181600116156101000203166002900480601f016020809104026020016040519081016040528092919081815260200182805460018160011615610100020316600290048015611d195780601f10611cee57610100808354040283529160200191611d19565b820191906000526020600020905b815481529060010190602001808311611cfc57829003601f168201915b5050505050915050919395975091939597565b611d3461264e565b1515611dce576040517f08c379a00000000000000000000000000000000000000000000000000000000081526004018080602001828103825260268152602001807f596f7520617265206e6f7420746865206f776e6572206f66207468697320636f81526020017f6e7472616374000000000000000000000000000000000000000000000000000081525060400191505060405180910390fd5b600073ffffffffffffffffffffffffffffffffffffffff166000809054906101000a900473ffffffffffffffffffffffffffffffffffffffff1673ffffffffffffffffffffffffffffffffffffffff167f5c486528ec3e3f0ea91181cff8116f02bfa350e03b8b6f12e00765adbb5af85c60405160405180910390a360008060006101000a81548173ffffffffffffffffffffffffffffffffffffffff021916908373ffffffffffffffffffffffffffffffffffffffff160217905550565b611e9633612631565b1515611f30576040517f08c379a00000000000000000000000000000000000000000000000000000000081526004018080602001828103825260268152602001807f546869732063616e206f6e6c7920626520646f6e65206279206120646973747281526020017f696275746f72000000000000000000000000000000000000000000000000000081525060400191505060405180910390fd5b611f39816136af565b50565b60006060806060600080600080600660008a8152602001908152602001600020600001549750600660008a81526020019081526020016000206008016000018054600181600116156101000203166002900480601f01602080910402602001604051908101604052809291908181526020018280546001816001161561010002031660029004801561200f5780601f10611fe45761010080835404028352916020019161200f565b820191906000526020600020905b815481529060010190602001808311611ff257829003601f168201915b50505050509650600660008a81526020019081526020016000206008016001018054600181600116156101000203166002900480601f0160208091040260200160405190810160405280929190818152602001828054600181600116156101000203166002900480156120c35780601f10612098576101008083540402835291602001916120c3565b820191906000526020600020905b8154815290600101906020018083116120a657829003601f168201915b50505050509550600660008a8152602001908152602001600020600a018054600181600116156101000203166002900480601f0160208091040260200160405190810160405280929190818152602001828054600181600116156101000203166002900480156121745780601f1061214957610100808354040283529160200191612174565b820191906000526020600020905b81548152906001019060200180831161215757829003601f168201915b50505050509450600660008a8152602001908152602001600020600b0160009054906101000a900473ffffffffffffffffffffffffffffffffffffffff169350600660008a8152602001908152602001600020600c0160009054906101000a900473ffffffffffffffffffffffffffffffffffffffff169250600660008a8152602001908152602001600020600d0160009054906101000a900473ffffffffffffffffffffffffffffffffffffffff169150600660008a8152602001908152602001600020600e0160009054906101000a900473ffffffffffffffffffffffffffffffffffffffff169050919395975091939597565b61227333612ad8565b151561230d576040517f08c379a00000000000000000000000000000000000000000000000000000000081526004018080602001828103825260218152602001807f546869732063616e206f6e6c7920626520646f6e652062792061206661726d6581526020017f720000000000000000000000000000000000000000000000000000000000000081525060400191505060405180910390fd5b61231681613729565b50565b600061232f82600461361b90919063ffffffff16565b9050919050565b6000612341336117a4565b15156123db576040517f08c379a00000000000000000000000000000000000000000000000000000000081526004018080602001828103825260238152602001807f546869732063616e206f6e6c7920626520646f6e65206279206120726574616981526020017f6c6572000000000000000000000000000000000000000000000000000000000081525060400191505060405180910390fd5b81600660088111156123e957fe5b6006600083815260200190815260200160002060030160009054906101000a900460ff16600881111561241857fe5b14151561248d576040517f08c379a00000000000000000000000000000000000000000000000000000000081526004018080602001828103825260178152602001807f4e6f7420726561647920666f7220726563656976696e6700000000000000000081525060200191505060405180910390fd5b3391508160066000858152602001908152602001600020600d0160006101000a81548173ffffffffffffffffffffffffffffffffffffffff021916908373ffffffffffffffffffffffffffffffffffffffff16021790555060076006600085815260200190815260200160002060030160006101000a81548160ff0219169083600881111561251857fe5b02179055507fa8142743f8f70a4c26f3691cf4ed59718381fb2f18070ec52be1f1022d855557836040518082815260200191505060405180910390a1505050565b60008060009054906101000a900473ffffffffffffffffffffffffffffffffffffffff16905090565b61258b336117a4565b1515612625576040517f08c379a00000000000000000000000000000000000000000000000000000000081526004018080602001828103825260238152602001807f546869732063616e206f6e6c7920626520646f6e65206279206120726574616981526020017f6c6572000000000000000000000000000000000000000000000000000000000081525060400191505060405180910390fd5b61262e816137a3565b50565b600061264782600261361b90919063ffffffff16565b9050919050565b60008060009054906101000a900473ffffffffffffffffffffffffffffffffffffffff1673ffffffffffffffffffffffffffffffffffffffff163373ffffffffffffffffffffffffffffffffffffffff1614905090565b6126ad613a56565b6126b633612ad8565b1515612750576040517f08c379a00000000000000000000000000000000000000000000000000000000081526004018080602001828103825260218152602001807f546869732063616e206f6e6c7920626520646f6e652062792061206661726d6581526020017f720000000000000000000000000000000000000000000000000000000000000081525060400191505060405180910390fd5b6001600554016005819055507f8e55ccfc9778ff8eba1646d765cf1982537ce0f9257054a17b48aad7452501836005546040518082815260200191505060405180910390a160408051908101604052808581526020018681525090506101c06040519081016040528060055481526020018a815260200160008152602001600160088111156127db57fe5b81526020018b81526020018981526020018881526020018781526020018281526020018481526020018373ffffffffffffffffffffffffffffffffffffffff168152602001600073ffffffffffffffffffffffffffffffffffffffff168152602001600073ffffffffffffffffffffffffffffffffffffffff168152602001600073ffffffffffffffffffffffffffffffffffffffff1681525060066000600554815260200190815260200160002060008201518160000155602082015181600101556040820151816002015560608201518160030160006101000a81548160ff021916908360088111156128cc57fe5b021790555060808201518160040190805190602001906128ed929190613a70565b5060a082015181600501908051906020019061290a929190613a70565b5060c0820151816006019080519060200190612927929190613a70565b5060e0820151816007019080519060200190612944929190613a70565b5061010082015181600801600082015181600001908051906020019061296b929190613a70565b506020820151816001019080519060200190612988929190613a70565b50505061012082015181600a0190805190602001906129a8929190613a70565b5061014082015181600b0160006101000a81548173ffffffffffffffffffffffffffffffffffffffff021916908373ffffffffffffffffffffffffffffffffffffffff16021790555061016082015181600c0160006101000a81548173ffffffffffffffffffffffffffffffffffffffff021916908373ffffffffffffffffffffffffffffffffffffffff16021790555061018082015181600d0160006101000a81548173ffffffffffffffffffffffffffffffffffffffff021916908373ffffffffffffffffffffffffffffffffffffffff1602179055506101a082015181600e0160006101000a81548173ffffffffffffffffffffffffffffffffffffffff021916908373ffffffffffffffffffffffffffffffffffffffff16021790555090505050505050505050505050565b6000612aee82600161361b90919063ffffffff16565b9050919050565b612afe33612ad8565b1515612b98576040517f08c379a00000000000000000000000000000000000000000000000000000000081526004018080602001828103825260218152602001807f546869732063616e206f6e6c7920626520646f6e652062792061206661726d6581526020017f720000000000000000000000000000000000000000000000000000000000000081525060400191505060405180910390fd5b8060056008811115612ba657fe5b6006600083815260200190815260200160002060030160009054906101000a900460ff166008811115612bd557fe5b141515612c4a576040517f08c379a00000000000000000000000000000000000000000000000000000000081526004018080602001828103825260168152602001807f4e6f7420726561647920666f72207368697070696e670000000000000000000081525060200191505060405180910390fd5b60066000838152602001908152602001600020600b0160009054906101000a900473ffffffffffffffffffffffffffffffffffffffff168073ffffffffffffffffffffffffffffffffffffffff163373ffffffffffffffffffffffffffffffffffffffff16141515612d4a576040517f08c379a000000000000000000000000000000000000000000000000000000000815260040180806020018281038252602b8152602001807f446f206e6f7420686176652074686520726967687420746f2063616c6c20746881526020017f69732066756e6374696f6e00000000000000000000000000000000000000000081525060400191505060405180910390fd5b600680600085815260200190815260200160002060030160006101000a81548160ff02191690836008811115612d7c57fe5b0217905550505050565b612d8f33612ad8565b1515612e29576040517f08c379a00000000000000000000000000000000000000000000000000000000081526004018080602001828103825260218152602001807f546869732063616e206f6e6c7920626520646f6e652062792061206661726d6581526020017f720000000000000000000000000000000000000000000000000000000000000081525060400191505060405180910390fd5b8060036008811115612e3757fe5b6006600083815260200190815260200160002060030160009054906101000a900460ff166008811115612e6657fe5b141515612edb576040517f08c379a00000000000000000000000000000000000000000000000000000000081526004018080602001828103825260148152602001807f4e6f7420726561647920666f7220616464696e6700000000000000000000000081525060200191505060405180910390fd5b60066000838152602001908152602001600020600b0160009054906101000a900473ffffffffffffffffffffffffffffffffffffffff168073ffffffffffffffffffffffffffffffffffffffff163373ffffffffffffffffffffffffffffffffffffffff16141515612fdb576040517f08c379a000000000000000000000000000000000000000000000000000000000815260040180806020018281038252602b8152602001807f446f206e6f7420686176652074686520726967687420746f2063616c6c20746881526020017f69732066756e6374696f6e00000000000000000000000000000000000000000081525060400191505060405180910390fd5b60046006600085815260200190815260200160002060030160006101000a81548160ff0219169083600881111561300e57fe5b02179055507f64a55044d1f2eddebe1b90e8e2853e8e96931cefadbfa0b2ceb34bee36061941836040518082815260200191505060405180910390a1505050565b60008061305b33612319565b15156130f5576040517f08c379a00000000000000000000000000000000000000000000000000000000081526004018080602001828103825260238152602001807f546869732063616e206f6e6c7920626520646f6e65206279206120636f6e737581526020017f6d6572000000000000000000000000000000000000000000000000000000000081525060400191505060405180910390fd5b826007600881111561310357fe5b6006600083815260200190815260200160002060030160009054906101000a900460ff16600881111561313257fe5b1415156131a7576040517f08c379a00000000000000000000000000000000000000000000000000000000081526004018080602001828103825260188152602001807f4e6f7420726561647920666f722070757263686173696e67000000000000000081525060200191505060405180910390fd5b6006600085815260200190815260200160002060020154803410151515613236576040517f08c379a00000000000000000000000000000000000000000000000000000000081526004018080602001828103825260148152602001807f48617665206e6f74207061696420656e6f75676800000000000000000000000081525060200191505060405180910390fd5b846000806000339750600660008a815260200190815260200160002060020154965087600660008b8152602001908152602001600020600e0160006101000a81548173ffffffffffffffffffffffffffffffffffffffff021916908373ffffffffffffffffffffffffffffffffffffffff1602179055506008600660008b815260200190815260200160002060030160006101000a81548160ff021916908360088111156132e057fe5b0217905550600660008a8152602001908152602001600020600c0160009054906101000a900473ffffffffffffffffffffffffffffffffffffffff1673ffffffffffffffffffffffffffffffffffffffff166108fc889081150290604051600060405180830381858888f19350505050158015613361573d6000803e3d6000fd5b507f653d56639fee6b566a5c804764e9689de38645f0b733df89a36a1b7b42173dd8896040518082815260200191505060405180910390a160018314156133c057600660008581526020019081526020016000206001015491506133da565b600660008581526020019081526020016000206002015491505b8134039050600183141561346a5760066000858152602001908152602001600020600c0160009054906101000a900473ffffffffffffffffffffffffffffffffffffffff1673ffffffffffffffffffffffffffffffffffffffff166108fc829081150290604051600060405180830381858888f19350505050158015613464573d6000803e3d6000fd5b506134e8565b60066000858152602001908152602001600020600e0160009054906101000a900473ffffffffffffffffffffffffffffffffffffffff1673ffffffffffffffffffffffffffffffffffffffff166108fc829081150290604051600060405180830381858888f193505050501580156134e6573d6000803e3d6000fd5b505b505050505050505050565b6134fb61264e565b1515613595576040517f08c379a00000000000000000000000000000000000000000000000000000000081526004018080602001828103825260268152602001807f596f7520617265206e6f7420746865206f776e6572206f66207468697320636f81526020017f6e7472616374000000000000000000000000000000000000000000000000000081525060400191505060405180910390fd5b61359e8161381d565b50565b6135b58160046139a690919063ffffffff16565b7f28b26e7a3d20aedbc5f8f2ebf7da671c0491723a2b78f47a097b0e46dee0714281604051808273ffffffffffffffffffffffffffffffffffffffff1673ffffffffffffffffffffffffffffffffffffffff16815260200191505060405180910390a150565b60008073ffffffffffffffffffffffffffffffffffffffff168273ffffffffffffffffffffffffffffffffffffffff161415151561365857600080fd5b8260000160008373ffffffffffffffffffffffffffffffffffffffff1673ffffffffffffffffffffffffffffffffffffffff16815260200190815260200160002060009054906101000a900460ff16905092915050565b6136c38160026139a690919063ffffffff16565b7fddbf200aa634dc3fb81cfd68583dd1040d1c751d335e1d86b631bde3e977fea881604051808273ffffffffffffffffffffffffffffffffffffffff1673ffffffffffffffffffffffffffffffffffffffff16815260200191505060405180910390a150565b61373d8160016139a690919063ffffffff16565b7f2e0ded4123377a3c2bc9a26f1717655a129e2f20752924d42e730ec89c83dbd081604051808273ffffffffffffffffffffffffffffffffffffffff1673ffffffffffffffffffffffffffffffffffffffff16815260200191505060405180910390a150565b6137b78160036139a690919063ffffffff16565b7f71ae26cad02663e3d92efd6ec56031a80d74a20c0ab4183faa8bf262261c9baa81604051808273ffffffffffffffffffffffffffffffffffffffff1673ffffffffffffffffffffffffffffffffffffffff16815260200191505060405180910390a150565b600073ffffffffffffffffffffffffffffffffffffffff168173ffffffffffffffffffffffffffffffffffffffff16141515156138e8576040517f08c379a00000000000000000000000000000000000000000000000000000000081526004018080602001828103825260268152602001807f596f7520617265206e6f7420746865206f776e6572206f66207468697320636f81526020017f6e7472616374000000000000000000000000000000000000000000000000000081525060400191505060405180910390fd5b8073ffffffffffffffffffffffffffffffffffffffff166000809054906101000a900473ffffffffffffffffffffffffffffffffffffffff1673ffffffffffffffffffffffffffffffffffffffff167f5c486528ec3e3f0ea91181cff8116f02bfa350e03b8b6f12e00765adbb5af85c60405160405180910390a3806000806101000a81548173ffffffffffffffffffffffffffffffffffffffff021916908373ffffffffffffffffffffffffffffffffffffffff16021790555050565b600073ffffffffffffffffffffffffffffffffffffffff168173ffffffffffffffffffffffffffffffffffffffff16141515156139e257600080fd5b6139ec828261361b565b1515156139f857600080fd5b60018260000160008373ffffffffffffffffffffffffffffffffffffffff1673ffffffffffffffffffffffffffffffffffffffff16815260200190815260200160002060006101000a81548160ff0219169083151502179055505050565b604080519081016040528060608152602001606081525090565b828054600181600116156101000203166002900490600052602060002090601f016020900481019282601f10613ab157805160ff1916838001178555613adf565b82800160010185558215613adf579182015b82811115613ade578251825591602001919060010190613ac3565b5b509050613aec9190613af0565b5090565b613b1291905b80821115613b0e576000816000905550600101613af6565b5090565b905600a165627a7a72305820fd3fbfb8abbb56d45bf04031ecb357497617949eb3fa5ffa69234939a126b93f0029",
  "source": "pragma solidity >=0.4.24;\n\nimport \"../access_control/Farmer.sol\";\nimport \"../access_control/Distributor.sol\";\nimport \"../access_control/Retailer.sol\";\nimport \"../access_control/Consumer.sol\";\nimport \"../core/Ownable.sol\";\n\ncontract SupplyChain is Ownable, Farmer, Distributor, Retailer, Consumer {\n\n    uint skuCount;\n    enum State { NonExistant, Harvested, Processed, Packed, Added, Bought, Shipped, Received, Purchased }\n    struct Coordinates {\n        string lat;\n        string long;\n    }\n    struct CoffeeLot {\n        uint  sku;\n        uint buyingPrice;\n        uint sellingPrice;\n        State  state;\n        string productUpc;\n        string originationInformation;\n        string farm;\n        string organizationInfo;\n        Coordinates coordinates;\n        string notes;\n        address farmer;\n        address  buyer;\n        address  retailer;\n        address consumer;\n    }\n    mapping (uint => CoffeeLot) coffeeLots;\n    event Harvested(uint skuCount);\n    event Processed(uint sku);\n    event Packed(uint sku);\n    event Added(uint sku);\n    event Bought(uint sku);\n    event Shipped(uint sku);\n    event Received(uint sku);\n    event Purchased(uint sku);\n    modifier verifyCaller (address _address) {\n        require(msg.sender == _address, \"Do not have the right to call this function\");\n        _;\n    }\n    modifier paidEnough(uint _price) {\n        require(msg.value >= _price, \"Have not paid enough\");\n        _;\n    }\n    modifier readyForProcessing(uint _sku) {\n        require(coffeeLots[_sku].state == State.Harvested, \"Not ready for processing\");\n        _;\n    }\n    modifier readyForPacking(uint _sku) {\n        require(coffeeLots[_sku].state == State.Processed, \"Not ready for packing\");\n        _;\n    }\n    modifier readyForAdding(uint _sku) {\n        require(coffeeLots[_sku].state == State.Packed, \"Not ready for adding\");\n        _;\n    }\n    modifier readyForBuying(uint _sku) {\n        require(coffeeLots[_sku].state == State.Added, \"Not ready for buying\");\n        _;\n    }\n    modifier readyForShipping(uint _sku) {\n        require(coffeeLots[_sku].state == State.Bought, \"Not ready for shipping\");\n        _;\n    }\n    modifier readyForReceiving(uint _sku) {\n        require(coffeeLots[_sku].state == State.Shipped, \"Not ready for receiving\");\n        _;\n    }\n    modifier readyForPurchasing(uint _sku) {\n        require(coffeeLots[_sku].state == State.Received, \"Not ready for purchasing\");\n        _;\n    }\n    modifier checkValue(uint _sku, uint _checkType) {\n        _;\n        uint _price;\n        if (_checkType == 1){\n           _price = coffeeLots[_sku].buyingPrice;\n        } else {\n          _price = coffeeLots[_sku].sellingPrice;\n        }\n        uint amountToRefund = msg.value - _price;\n        if (_checkType == 1){\n            coffeeLots[_sku].buyer.transfer(amountToRefund);\n        }else {\n            coffeeLots[_sku].consumer.transfer(amountToRefund);\n        }\n    }\n    constructor() public payable {\n        origOwner = msg.sender;\n        skuCount = 0;\n    }\n    function harvestCoffee(string _productUpc, uint _buyingPrice, string _originationInformation, string _farm, string _organizationInfo, string _longitude, string _latitude, string _notes, address _farmer) onlyFarmer public {\n        skuCount = skuCount + 1;\n\n        emit Harvested(skuCount);\n\n        Coordinates memory _coordinates = Coordinates({lat: _latitude, long: _longitude});\n        coffeeLots[skuCount] = CoffeeLot({sku: skuCount, buyingPrice: _buyingPrice, sellingPrice: 0, state: State.Harvested, productUpc: _productUpc, originationInformation: _originationInformation, farm: _farm, organizationInfo: _organizationInfo, coordinates: _coordinates, notes: _notes, farmer: _farmer, buyer: 0, retailer: 0, consumer: 0});\n\n    }\n    function processCoffee(uint sku) onlyFarmer readyForProcessing(sku) verifyCaller(coffeeLots[sku].farmer)  public {\n        coffeeLots[sku].state = State.Processed;\n        emit Processed(sku);\n    }\n    function packCoffee(uint sku) onlyFarmer readyForPacking(sku) verifyCaller(coffeeLots[sku].farmer)  public {\n        coffeeLots[sku].state = State.Packed;\n        emit Packed(sku);\n    }\n    function addCoffee(uint sku) onlyFarmer readyForAdding(sku) verifyCaller(coffeeLots[sku].farmer)  public {\n        coffeeLots[sku].state = State.Added;\n        emit Added(sku);\n    }\n    function buyCoffee(uint sku, uint buyingPrice) onlyDistributor readyForBuying(sku) paidEnough(coffeeLots[sku].buyingPrice) checkValue(sku, 1)  public payable{\n        address buyer = msg.sender;\n        uint price = coffeeLots[sku].buyingPrice;\n        coffeeLots[sku].buyer = buyer;\n        coffeeLots[sku].sellingPrice = buyingPrice;\n        coffeeLots[sku].state = State.Bought;\n        coffeeLots[sku].farmer.transfer(price);\n        emit Bought(sku);\n    }\n    function shipCoffee(uint sku) onlyFarmer readyForShipping(sku) verifyCaller(coffeeLots[sku].farmer)  public {\n        coffeeLots[sku].state = State.Shipped;\n        //emit Shipped(sku);\n    }\n    function receiveCoffee(uint sku) onlyRetailer readyForReceiving(sku) public  {\n        address retailer = msg.sender;\n        coffeeLots[sku].retailer = retailer;\n        coffeeLots[sku].state = State.Received;\n        emit Received(sku);\n    }\n    function purchaseCoffee(uint sku) onlyConsumer readyForPurchasing(sku) paidEnough(coffeeLots[sku].sellingPrice) checkValue(sku, 0)  public payable{\n        address consumer = msg.sender;\n        uint sellingPrice = coffeeLots[sku].sellingPrice;\n        coffeeLots[sku].consumer = consumer;\n        coffeeLots[sku].state = State.Purchased;\n        coffeeLots[sku].buyer.transfer(sellingPrice);\n        emit Purchased(sku);\n    }\n    function trackCoffeeBufferOne(uint _sku) public view returns ( uint sku, uint buyingPrice,uint sellingPrice, string stateIs,string productUpc, string originationInformation, string farm, string organizationInfo) {\n        sku = coffeeLots[_sku].sku;\n        uint state;\n        buyingPrice = coffeeLots[_sku].buyingPrice;\n        sellingPrice = coffeeLots[_sku].sellingPrice;\n        state = uint(coffeeLots[_sku].state);\n        if( state == 1) {\n            stateIs = \"Harvested\";\n        }\n        if( state == 2) {\n            stateIs = \"Processed\";\n        }\n        if( state == 3) {\n            stateIs = \"Packed\";\n        }\n        if( state == 4) {\n            stateIs = \"Added\";\n        }\n        if( state == 5) {\n            stateIs = \"Bought\";\n        }\n        if( state == 6) {\n            stateIs = \"Shipped\";\n        }\n        if( state == 7) {\n            stateIs = \"Received\";\n        }\n        if( state == 8) {\n            stateIs = \"Purchased\";\n        }\n        productUpc = coffeeLots[_sku].productUpc;\n        originationInformation = coffeeLots[_sku].originationInformation;\n        farm = coffeeLots[_sku].farm;\n        organizationInfo = coffeeLots[_sku].organizationInfo;\n    }\n    function trackCoffeeBufferTwo(uint _sku) public view returns ( uint sku, string lat, string long, string notes,  address farmer, address buyer, address retailer, address consumer) {\n        sku = coffeeLots[_sku].sku;\n        lat = string(coffeeLots[_sku].coordinates.lat);\n        long = string(coffeeLots[_sku].coordinates.long);\n        notes = coffeeLots[_sku].notes;\n        farmer = coffeeLots[_sku].farmer;\n        buyer = coffeeLots[_sku].buyer;\n        retailer = coffeeLots[_sku].retailer;\n        consumer = coffeeLots[_sku].consumer;\n    }\n}",
  "sourcePath": "/Users/cost/Documents/Courses/blockchain-nanodegree/projects/coffee_supply_chain/contracts/base/SupplyChain.sol",
  "compiler": {
    "name": "solc",
    "version": "0.4.26+commit.4563c3fc.Emscripten.clang"
  },
  "schemaVersion": "3.0.2",
  "updatedAt": "2020-03-28T16:23:31.673Z",
  "devdoc": {
    "methods": {}
  },
  "userdoc": {
    "methods": {}
  }
}